:020000040800F2
:10000000E4FA0020F5640708693907086B39070826
:100010006D3907086F3907087139070800000000BB
:100020000000000000000000000000007339070815
:100030007539070800000000773907087939070883
:10004000456A0708496A07084D6A0708516A0708A0
:10005000556A0708596A07085D6A0708616A070850
:10006000656A0708696A07086D6A0708873907081B
:10007000716A0708756A0708796A07087D6A0708C0
:10008000816A0708856A070891390708896A07089D
:100090009B3907088D6A0708916A0708956A07085F
:1000A000996A07089D6A0708A16A0708A56A0708F0
:1000B000A96A0708AD6A0708B16A0708B56A0708A0
:1000C000B96A0708BD6A0708C16A0708C56A070850
:1000D000C96A0708CD6A0708D16A0708D56A070800
:1000E000D96A0708DD6A0708E16A0708E56A0708B0
:1000F000E96A0708ED6A0708F16A0708F56A070860
:10010000F96A0708FD6A0708016B0708056B07080D
:10011000096B07080D6B0708116B0708156B0708BB
:10012000196B07081D6B0708216B0708256B07086B
:10013000296B07082D6B0708316B0708356B07081B
:10014000396B07083D6B0708416B0708456B0708CB
:10015000496B07084D6B0708516B0708556B07087B
:10016000596B07085D6B0708616B0708656B07082B
:10017000696B07086D6B0708716B070800000000CA
:10018000756B0708796B07086FFFFC05FFFFB05F11
:10019000FFFA04FFFFA03FFFF903FFFF902FFFF8D6
:1001A00002FFFF701FFFF700FFFF600FFFF500FF6A
:1001B000FF500FFFF400EFFF400DFFF300DFFF20C3
:1001C0000CFFF200CFFF100BFFF000BFFF000AFF93
:1001D000F0009FFF000366500000000000000000D8
:1001E000000000000000006DEA105FFFFB0BFFFF46
:1001F000F1BFFFFF16FFFFB007DEA1001FFFC00029
:100200000CFFF11FFFB0000CFFF00FFFB0000BFF61
:10021000F00FFFA0000BFFF00FFFA0000AFFF00F90
:10022000FF90000AFFF00FFF90000AFFE00FFF9021
:100230000009FFE00EFF800009FFD00EFF800009DB
:10024000FFD00EFF700008FFD00DFF700008FFC048
:1002500008AA400005AA700000000007FFC00000C7
:100260000009FFB0000000000000009FFA0000003D
:1002700000BFF9000000000000000BFF800000003C
:100280000DFF7000000000000000DFF6000000001D
:10029000FFF5000000000000000FFF400000001FFD
:1002A000FF3000000000000001FFF200000003FF2B
:1002B000F1000000000000003FFF000000005FFFB1
:1002C0000000000000000006FFE000000007FFD073
:1002D00000000004FFFFFFFFFFFFFFFFFFFFFFFF26
:1002E000FFFF104FFFFFFFFFFFFFFFFFFFFFFFFFBD
:1002F000FFF104FFFFFFFFFFFFFFFFFFFFFFFFFF17
:10030000FF101666666EFFA66666666FFF966666E7
:100310006000000000FFF400000001FFF300000097
:10032000000000001FFF200000002FFF1000000051
:1003300000000003FFF000000004FFF000000000D8
:100340000000005FFE000000006FFD0000000000E4
:10035000000007FFC000000008FFB0000000000020
:1003600000009FFA00000000AFFA0000000000004B
:10037000000BFF900000000BFF8000000000000059
:1003800000DFF700000000DFF600000000000000C2
:100390000FFF500000000FFF400000000CFFFFFFA8
:1003A000FFFFFFFFFFFFFFFFFFFFFA00CFFFFFFF91
:1003B000FFFFFFFFFFFFFFFFFFFFA00CFFFFFFFF9F
:1003C000FFFFFFFFFFFFFFFFFFFA00566666AFFE6D
:1003D00066666666BFFD6666664000000008FFB0A0
:1003E00000000009FFA000000000000000AFF900BD
:1003F000000000BFF9000000000000000CFF7000CA
:1004000000000DFF7000000000000000EFF600008B
:100410000000FFF5000000000000000FFF4000009A
:10042000000FFF3000000000000002FFF20000009B
:1004300002FFF1000000000000003FFF000000008C
:100440004FFF0000000000000005FFE00000000674
:10045000FFD00000000000000000000000788000D5
:1004600000000000000000000000FFF0000000009D
:1004700000000000000000FFF0000000000000008D
:1004800000000000FFF0000000000000000000007D
:1004900000FFF00000000000000000000000FFF07E
:1004A00000000000000000000059CEFFFFEC951096
:1004B00000000000018FFFFFFFFFFFFFFB40000077
:1004C000003EFFFFFFFFFFFFFFFFFB100003FFFFEA
:1004D000FFFFFFFFFFFFFFFF10000EFFFFF941FFCF
:1004E000F1258DFFFA00007FFFFC2000FFF00000E7
:1004F0004CF30000EFFFE10000FFF00000004000BF
:1005000002FFFF700000FFF0000000000004FFFF8A
:10051000300000FFF0000000000004FFFF3000008A
:10052000FFF0000000000003FFFF700000FFF0007C
:100530000000000000FFFFE20000FFF000000000EC
:100540000000BFFFFE6000FFF00000000000002F71
:10055000FFFFFE83FFF000000000000005FFFFFF2B
:10056000FFFFF2000000000000004EFFFFFFFFFF52
:10057000E9400000000000008EFFFFFFFFFFFE814A
:100580000000000000005AFFFFFFFFFFFE600000B8
:100590000000000003FFFFFFFFFFF8000000000065
:1005A0000000FFF49FFFFFFF60000000000000FF5D
:1005B000F0006EFFFFF0000000000000FFF00001FF
:1005C000DFFFF5000000000000FFF000003FFFF932
:1005D000000000000000FFF000000EFFFA00000025
:1005E000000000FFF000000DFFFA004000000000D6
:1005F000FFF000001FFFF800ED20000000FFF000FA
:10060000008FFFF306FFF9200000FFF00007FFFF57
:10061000D00DFFFFFB6310FFF026CFFFFF4008FF68
:10062000FFFFFFFFFFFFFFFFFFF700004DFFFFFF92
:10063000FFFFFFFFFFFF700000005CFFFFFFFFFFF9
:10064000FFFFB3000000000026ADEFFFFFEB7200DC
:100650000000000000000000FFF0000000000000AB
:100660000000000000FFF00000000000000000009B
:100670000000FFF00000000000000000000000FF8C
:10068000F00000000000000000000000FFF000008B
:100690000000000000000000007880000000000062
:1006A000000017CEFD93000000000000000BFFC00B
:1006B000000000004EFFFFFFF900000000000006F0
:1006C000FFF2000000004FFFFBBDFFF9000000003B
:1006D0000001FFF7000000000EFFA10005FFF5007C
:1006E00000000000BFFC0000000007FFC000000683
:1006F000FFD0000000006FFF2000000000DFF400CA
:1007000000000DFF300000001FFF70000000001F00
:10071000FF000000008FF60000000BFFC00000008B
:100720000003FFC000000006FF90000006FFF2007B
:10073000000000004FFB000000005FFA000001FF16
:10074000F7000000000004FFB000000005FF90006B
:1007500000BFFC0000000000002FFD000000006F43
:10076000F800006FFF20000000000000FFF1000013
:10077000000AFF50001FFF700000000000000BFF88
:1007800060000001FFF1000BFFC00000000000004E
:10079000004FFE200000AFFA0006FFF2000000004C
:1007A00000000000BFFE5103BFFF2001FFF7000063
:1007B00000000000000001DFFFFFFFFF5000BFFC52
:1007C00000005AEFEB6000000001AFFFFFFD4000AA
:1007D0006FFF2000BFFFFFFFC100000000279A84C9
:1007E00000001FFF7000CFFFDBCFFFD10000000033
:1007F000000000000BFFC0008FFE30002DFFA000A6
:1008000000000000000006FFF2000FFF3000002F84
:10081000FF2000000000000001FFF70006FFA0001D
:1008200000008FF900000000000000BFFD00009FE5
:10083000F500000003FFC00000000000006FFF3063
:10084000000CFF200000000FFF0000000000001F50
:10085000FF700000DFF100000000FFF0000000006A
:10086000000BFFD000000DFF100000000EFF000085
:1008700000000006FFF3000000CFF200000000FFC0
:10088000F00000000001FFF80000000AFF50000027
:10089000003FFD0000000000BFFD000000006FFAF7
:1008A00000000008FF90000000006FFF3000000013
:1008B00000FFF3000002FFF3000000001EFF8000B5
:1008C00000000008FFE30002DFFA000000000BFF59
:1008D000D000000000000CFFFDBCFFFE1000000077
:1008E00006FFF30000000000000BFFFFFFFD1000FB
:1008F000000001EFF80000000000000005BEFEB699
:100900000000000000000039CEFFDA5000000000B7
:100910000000000002CFFFFFFFFFD3000000000037
:10092000000002EFFFFFFFFFFFF3000000000000E8
:1009300000DFFFFA6458FFFFE00000000000006FD6
:10094000FFF4000001DFFF5000000000000CFFF882
:1009500000000004FFF9000000000000EFFF30007D
:1009600000000FFFB000000000000EFFF2000000CA
:1009700001FFFA000000000000DFFF500000006FE0
:10098000FF70000000000009FFFC0000002FFFF2D4
:100990000000000000003FFFF600004EFFF90000DD
:1009A0000000000000BFFFF4009FFFFC00000000FB
:1009B00000000001EFFFF7EFFFFB00000000000068
:1009C000000003FFFFFFFFF7000000000000000031
:1009D0000006FFFFFFC3000000000000000000074A
:1009E000FFFFFFF30000000000000000002CFFFFED
:1009F000FFFFF300000000000000004FFFFF95FF25
:100A0000FFF3000000372000005FFFFD3004FFFF10
:100A1000F3000008FFD2003FFFFB000004FFFFF3DC
:100A20000000CFFF100DFFFB00000004FFFFF300EC
:100A30001FFFD005FFFF1000000004FFFFF307FFBA
:100A4000F800AFFFA00000000004FFFFF3EFFF205D
:100A50000DFFF7000000000004FFFFFFFFC000EFE4
:100A6000FF60000000000004FFFFFFF4000DFFFA2C
:100A700000000000000004FFFFFB0000AFFFF200D9
:100A800000000000001DFFFFF40005FFFFD2000082
:100A90000000004EFFFFFFF4000CFFFFF8200000F5
:100AA00015CFFFFFFFFFF4001EFFFFFFECCCEFFFB1
:100AB000FFFF53FFFFF3001CFFFFFFFFFFFFFFFDE2
:100AC0002004FFFF800006EFFFFFFFFFFFD60000BE
:100AD00004FFB000000048CEFFFDB7300000000466
:100AE000D100000000000000000000000000000035
:100AF0001FFFC1FFFB0FFFB0FFFA0FFFA0FFF90FB1
:100B0000FF90FFF90EFF80EFF80EFF70DFF708AAE5
:100B100040000007FFFC000001EFFF4000008FFFD6
:100B2000B000000EFFF4000006FFFD000000DFFF34
:100B30007000002FFFF1000008FFFC000000CFFF55
:100B40007000001FFFF3000005FFFE0000008FFF94
:100B5000B000000CFFF8000000EFFF5000001FFF86
:100B6000F3000003FFFF1000005FFFF0000006FF2E
:100B7000FE0000008FFFC0000008FFFC0000009F87
:100B8000FFB0000009FFFB0000009FFFB00000095C
:100B9000FFFB0000008FFFB0000008FFFC0000001A
:100BA0006FFFE0000005FFFF0000003FFFF10000C5
:100BB00001FFFF3000000EFFF5000000CFFF8000B6
:100BC0000008FFFB0000005FFFE0000001FFFF30B6
:100BD00000000CFFF70000008FFFC0000002FFFFC5
:100BE0001000000CFFF70000006FFFD0000000EFC6
:100BF000FF40000008FFFB0000000EFFF4000000B3
:100C00006FFFC04FFFE0000000CFFF80000004FF37
:100C1000FF1000000CFFF80000005FFFE000000084
:100C2000FFFF50000009FFFB0000004FFFF1000034
:100C300000FFFF5000000BFFFA0000006FFFE00014
:100C40000003FFFF1000000FFFF5000000DFFF7042
:100C500000000AFFFA0000008FFFC0000006FFFE40
:100C60000000005FFFF0000004FFFF0000003FFFF6
:100C7000F1000002FFFF2000002FFFF2000002FF42
:100C8000FF2000002FFFF2000003FFFF1000004FC5
:100C9000FFF0000005FFFF0000006FFFE00000080C
:100CA000FFFC000000AFFFA000000DFFF7000000F8
:100CB000FFFF4000003FFFF1000006FFFD000000C5
:100CC000BFFFA000000FFFF5000004FFFF100000B1
:100CD0009FFFB000000FFFF5000005FFFE000000C1
:100CE000CFFF7000004FFFF100000CFFF800000480
:100CF000FFFE00000000000002FF90000000000066
:100D00000002FF9000000000000002FF80000000D1
:100D100000C40002FF80001A5008FFB202FF8007E3
:100D2000FFE00DFFFF72FF84DFFFF4008FFFFEFF87
:100D3000EFFFFB300001AFFFFFFFFD50000000039D
:100D4000EFFFFF80000000003CFFFFFFF700000006
:100D50002AFFFFFFFFFFE50008FFFFD6FFAAFFFF06
:100D6000C20BFFF702FF803DFFF203FA1002FF8083
:100D7000007F9000200002FF8000011000000002B0
:100D8000FF9000000000000002FF90000000000043
:100D900000016630000000000000004777200000DE
:100DA000000000000008FFF5000000000000000047
:100DB0008FFF500000000000000008FFF500000059
:100DC00000000000008FFF5000000000000000083D
:100DD000FFF500000000000000008FFF5000000041
:100DE0000000000008FFF500000000000000008F78
:100DF000FF500000000EFFFFFFFFFFFFFFFFFFFBA4
:100E0000EFFFFFFFFFFFFFFFFFFFBEFFFFFFFFFF43
:100E1000FFFFFFFFFBABBBBBBBDFFFCBBBBBBB70B5
:100E200000000008FFF500000000000000008FFF38
:100E3000500000000000000008FFF5000000000066
:100E40000000008FFF500000000000000008FFF5C8
:100E500000000000000000008FFF500000000000B4
:100E6000000008FFF500000000000000008FFF50A8
:100E700000000000000000006EFB105FFFFC0BFF95
:100E8000FFF2BFFFFF37FFFFF10AFFFD000FFF700A
:100E900003FFF2007FFD000BFF8000FFF2003FFD2B
:100EA0000007FF80005EEEEEEEEEEEE6FFFFFFFFD6
:100EB000FFFF6FFFFFFFFFFFF6FFFFFFFFFFFF00DA
:100EC000451001CFFF509FFFFF0DFFFFF3CFFFFF46
:100ED00025FFFFC006DFA1000000000000000004A5
:100EE000FFFB000000000000000AFFF5000000000A
:100EF0000000000FFFF0000000000000005FFFA0F6
:100F000000000000000000AFFF50000000000000E3
:100F100000FFFF0000000000000005FFFA000000D5
:100F2000000000000BFFF4000000000000001FFFA5
:100F3000E0000000000000006FFF900000000000D3
:100F40000000BFFF4000000000000001FFFE0000A5
:100F5000000000000006FFF9000000000000000C87
:100F6000FFF3000000000000001FFFE00000000091
:100F70000000007FFF8000000000000000CFFF3075
:100F800000000000000002FFFD0000000000000063
:100F900007FFF8000000000000000DFFF200000055
:100FA000000000002FFFD0000000000000008FFFB5
:100FB0007000000000000000DFFF200000000000C3
:100FC0000003FFFC0000000000000008FFF7000025
:100FD00000000000000EFFF1000000000000004FC4
:100FE000FFC0000000000000009FFF600000000044
:100FF000000000EFFF1000000000000004FFFB00F5
:101000000000000000000AFFF500000000000000E2
:101010000FFFF0000000000000005FFFA0000000D4
:1010200000000000AFFF5000000000000000FFFFC4
:101030000000000000000005FFFA000000000000B2
:10104000000BFFF4000000000000001FFFE00000A4
:1010500000000000006FFF9000000000000000BFD3
:10106000FF4000000000000001FFFE000000000043
:10107000000006FFF9000000000000000CFFF30074
:101080000000000000001FFFE00000000000000062
:101090000000000016ADFFEC94000000000000000E
:1010A000018FFFFFFFFFFE50000000000003EFFF75
:1010B000FFFFFFFFFFB10000000004FFFFFFFFFF85
:1010C000FFFFFFD100000003FFFFFFB64247DFFF35
:1010D000FFC0000000DFFFFD300000006FFFFF8059
:1010E00000007FFFFD00000000003FFFFF20001F09
:1010F000FFFF1000000000005FFFFA0006FFFF7016
:10110000000000000000CFFFF100CFFFF000000062
:1011100000000004FFFF701FFFFA00000000000045
:10112000000EFFFB04FFFF5000000000000000AFB6
:10113000FFF07FFFF20000000000000007FFFF2922
:10114000FFFF00000000000000004FFFF4BFFFE0C1
:101150000000000000000003FFFF6CFFFD00000026
:1011600000000000002FFFF6CFFFD00000000000BD
:10117000000002FFFF7CFFFD0000000000000000F7
:101180002FFFF6BFFFE00000000000000003FFFF9C
:1011900069FFFF00000000000000004FFFF47FFF28
:1011A000F20000000000000007FFFF24FFFF5000D6
:1011B000000000000000AFFFF01FFFFA0000000079
:1011C0000000000EFFFB00CFFFF000000000000059
:1011D00004FFFF7006FFFF70000000000000CFFF5B
:1011E000F1001FFFFF1000000000005FFFFA000089
:1011F0007FFFFD00000000003FFFFF200000DFFF39
:10120000FD300000006FFFFF80000003FFFFFFB60E
:101210003247DFFFFFC000000004FFFFFFFFFFFFBA
:10122000FFFFD10000000003EFFFFFFFFFFFFFB152
:101230000000000000019FFFFFFFFFFE60000000B4
:101240000000000016ADFFED940000000000AFFFAD
:10125000FFFFFFFF3AFFFFFFFFFFF3AFFFFFFFFFBF
:10126000FF3AFFFFFFFFFFF301111116FFFF3000F0
:1012700000005FFFF300000005FFFF300000005F8B
:10128000FFF300000005FFFF300000005FFFF300E8
:10129000000005FFFF300000005FFFF300000005C5
:1012A000FFFF300000005FFFF300000005FFFF308C
:1012B0000000005FFFF300000005FFFF30000000AA
:1012C0005FFFF300000005FFFF300000005FFFF349
:1012D00000000005FFFF300000005FFFF30000008A
:1012E00005FFFF300000005FFFF300000005FFFF77
:1012F000300000005FFFF300000005FFFF3000003A
:10130000005FFFF300000005FFFF300000005FFFFB
:10131000F300000005FFFF300000005FFFF3000056
:101320000005FFFF30000000059CEFFEDB720000AF
:1013300000000002AFFFFFFFFFFFFC3000000009CC
:10134000FFFFFFFFFFFFFFFF7000001DFFFFFFFF1C
:10135000FFFFFFFFFF70001DFFFFFFA643246BFF91
:10136000FFFF3000BFFFF70000000003EFFFFB00AE
:10137000009FD2000000000002FFFFF100006100AA
:10138000000000000008FFFF400000000000000017
:1013900000004FFFF600000000000000000002FF08
:1013A000FF600000000000000000004FFFF500009B
:1013B0000000000000000007FFFF20000000000008
:1013C00000000000CFFFE00000000000000000006F
:1013D0004FFFF80000000000000000001EFFFF109B
:1013E00000000000000000000BFFFF700000000084
:1013F000000000000AFFFFB0000000000000000035
:101400000AFFFFD100000000000000000BFFFFD129
:1014100000000000000000000BFFFFE200000000E1
:10142000000000000BFFFFD10000000000000000E2
:101430000BFFFFD100000000000000000CFFFFD1F7
:1014400000000000000000000CFFFFD100000000C1
:10145000000000001CFFFFC10000000000000000B1
:101460001CFFFFC100000000000000001DFFFFC0C6
:1014700000000000000000001DFFFFC00000000091
:10148000000000001DFFFFC1111111111111110009
:101490001DFFFFFFFFFFFFFFFFFFFFFD04FFFFFF3B
:1014A000FFFFFFFFFFFFFFFFD04FFFFFFFFFFFFF2B
:1014B000FFFFFFFFFD04FFFFFFFFFFFFFFFFFFFF39
:1014C000FFD004FFFFFFFFFFFFFFFFFFFFF0004F14
:1014D000FFFFFFFFFFFFFFFFFFFF0004FFFFFFFF16
:1014E000FFFFFFFFFFFFF0004FFFFFFFFFFFFFFFCA
:1014F000FFFFFB0000111111111111114FFFFD0031
:1015000000000000000000001DFFFF2000000000A0
:10151000000000000BFFFF40000000000000000082
:1015200008FFFF80000000000000000005FFFFB082
:10153000000000000000000003FFFFD000000000DA
:101540000000000001EFFFF20000000000000000BA
:1015500000CFFFF40000000000000000009FFFF833
:101560000000000000000000006FFFFD20000000F0
:1015700000000000000EFFFFFFFA50000000000016
:101580000000EFFFFFFFFFD40000000000000EFF8F
:10159000FFFFFFFFF800000000000056667ADFFF43
:1015A000FFF60000000000000000003CFFFFF1001B
:1015B00000000000000000000AFFFF900000000093
:1015C00000000000001EFFFE000000000000000000
:1015D00000009FFFF100000000000000000006FF77
:1015E000FF300000000000000000006FFFF300006B
:1015F0000000000000000008FFFF100600000000CF
:1016000000000000EFFFE005FC10000000000000FB
:101610008FFFF900DFFF9200000000019FFFFF2015
:101620007FFFFFFD9643236AFFFFFF8004EFFFFF6C
:10163000FFFFFFFFFFFFFFB00001AFFFFFFFFFFF56
:10164000FFFFFF9000000029FFFFFFFFFFFFFC30BE
:10165000000000000048BDFFFFDB7200000000003A
:10166000000000000000003FFFFC00000000000040
:10167000000000000000DFFFE200000000000000AA
:10168000000000000AFFFF40000000000000000012
:101690000000007FFFF800000000000000000000D4
:1016A0000003FFFFC0000000000000000000000079
:1016B0001EFFFE100000000000000000000000BF40
:1016C000FFF4000000000000000000000007FFFF22
:1016D0008000000000000000000000003FFFFC0050
:1016E0000000000000000000000001EFFFE100002A
:1016F0000000000000000000000BFFFF40000000A1
:1017000000000000000000008FFFF8000000000053
:1017100000000000000004FFFFC000000000000007
:1017200000000000001EFFFE100000033330000028
:1017300000000000CFFFF40000003FFFF1000000B8
:10174000000008FFFF800000003FFFF100000000E4
:10175000004FFFFC000000003FFFF100000000010F
:10176000EFFFE1000000003FFFF1000000000CFF70
:10177000FF40000000003FFFF1000000009FFFF865
:1017800000000000003FFFF100000005FFFFC00067
:10179000000000003FFFF20000001FFFFFFFFFFFFF
:1017A000FFFFFFFFFFFFFFFFF34FFFFFFFFFFFFF05
:1017B000FFFFFFFFFFFFFFF34FFFFFFFFFFFFFFFF5
:1017C000FFFFFFFFFFFFF34FFFFFFFFFFFFFFFFFE5
:1017D000FFFFFFFFFFF30000000000000000005FBC
:1017E000FFF10000000000000000000000005FFFAB
:1017F000F10000000000000000000000005FFFF1A9
:101800000000000000000000000000005FFFF10089
:1018100000000000000000000000005FFFF1000079
:10182000000000000000000000005FFFF100000069
:101830000000000000000000005FFFF10000000059
:1018400000000000000000005FFFF1000000000049
:101850003FFFFFFFFFFFFFFFFFF0000005FFFFFF5F
:10186000FFFFFFFFFFFF0000006FFFFFFFFFFFFF15
:10187000FFFFF0000008FFFFFFFFFFFFFFFFFF007B
:101880000000AFFFA11111111111111000000BFF89
:10189000F800000000000000000000DFFF70000002
:1018A000000000000000000EFFF500000000000036
:1018B00000000000FFFF30000000000000000000FA
:1018C0002FFFF200000000000000000003FFFF00F7
:1018D0000000000000000000005FFFF000000000BA
:1018E000000000000006FFFD1110000000000000D5
:1018F00000008FFFFFFFFFFEB850000000000AFF4E
:10190000FFFFFFFFFFFFFA10000000BFFFFFFFFF18
:10191000FFFFFFFF6000000DFFFFFFFFFFFFFFFF66
:10192000FF7000000000000001258DFFFFFF400058
:101930000000000000000004EFFFFD0000000000B8
:101940000000000001EFFFF30000000000000000B5
:101950000005FFFF800000000000000000000FFFF6
:10196000FA00000000000000000000DFFFC00000DF
:10197000000000000000000DFFFC0000000000005F
:1019800000000000FFFFA003300000000000000086
:101990006FFFF700CF700000000000002EFFFF2057
:1019A0005FFFD600000000004EFFFFB00EFFFFFFFC
:1019B000B7532347DFFFFFF2009FFFFFFFFFFFFF4B
:1019C000FFFFFFF500004DFFFFFFFFFFFFFFFFE4FC
:1019D00000000005CFFFFFFFFFFFFF9100000000A8
:1019E00000159CEFFFEC95000000000000000000D7
:1019F00049BEFFFEB8400000000000018FFFFFFF5E
:101A0000FFFFFF81000000006FFFFFFFFFFFFFFFF0
:101A1000F200000009FFFFFFFFFFFFFFFFA0000033
:101A200000AFFFFFFA62101248EF20000007FFFF2F
:101A3000F91000000000040000002FFFFF6000000C
:101A400000000000000000CFFFF6000000000000D2
:101A500000000003FFFFA0000000000000000000E5
:101A60000AFFFF200000000000000000000EFFFB46
:101A7000000000000000000000003FFFF600000032
:101A8000000000000000006FFFF2000000000000F6
:101A9000000000008FFFF000038CEFFEC940000043
:101AA00000AFFFE004DFFFFFFFFFFE600000BFFFAD
:101AB000D08FFFFFFFFFFFFFFB0000CFFFD8FFFF2E
:101AC000FFDCDFFFFFFFC000CFFFFFFFFA40000099
:101AD0004BFFFFF900BFFFFFFE40000000005FFF6B
:101AE000FF20AFFFFFF3000000000006FFFF909F04
:101AF000FFFF80000000000000DFFFD06FFFFF202D
:101B00000000000000008FFFF02FFFFF000000002A
:101B10000000005FFFF10FFFFF0000000000000069
:101B20006FFFF109FFFF200000000000008FFFF0B1
:101B300003FFFF80000000000000DFFFC000CFFFB8
:101B4000F2000000000006FFFF70002FFFFE3000D3
:101B50000000005FFFFE100007FFFFFA4000004B8F
:101B6000FFFFF50000009FFFFFFFECDFFFFFFF809E
:101B700000000007FFFFFFFFFFFFFFF7000000006E
:101B8000003BFFFFFFFFFFFB3000000000000027CD
:101B9000BDFFFEB720000000AFFFFFFFFFFFFFFF0C
:101BA000FFFFFFFFAAFFFFFFFFFFFFFFFFFFFFFF9A
:101BB000FAAFFFFFFFFFFFFFFFFFFFFFFFAAFFFFDF
:101BC000FFFFFFFFFFFFFFFFFFF8AFFFD111111174
:101BD0001111111BFFFF1AFFFC00000000000001A3
:101BE000FFFFA0AFFFC00000000000008FFFF30A5E
:101BF000FFFC0000000000000FFFFC00AFFFC00072
:101C00000000000006FFFF5009FFFC00000000007C
:101C100000DFFFE00000000000000000005FFFF7B1
:101C20000000000000000000000CFFFF100000009A
:101C3000000000000003FFFF900000000000000013
:101C40000000AFFFF20000000000000000001FFFD6
:101C5000FB00000000000000000008FFFF40000043
:101C600000000000000000EFFFD0000000000000B6
:101C70000000006FFFF60000000000000000000DF3
:101C8000FFFE00000000000000000004FFFF8000D5
:101C90000000000000000000BFFFF1000000000095
:101CA000000000002FFFFA0000000000000000000C
:101CB00009FFFF30000000000000000001FFFFC02E
:101CC0000000000000000000007FFFF500000000A1
:101CD00000000000000EFFFE0000000000000000F9
:101CE0000005FFFF70000000000000000000CFFFB3
:101CF000F10000000000000000003FFFF9000000BC
:101D00000000000000000AFFFF20000000000000AB
:101D1000000002FFFFB00000000000000000008F84
:101D2000FFF40000000000000000000FFFFD0000B5
:101D30000000000000000000038BDFFFECA6100095
:101D40000000000005DFFFFFFFFFFFFA200000009A
:101D500001BFFFFFFFFFFFFFFFF70000000DFFFFC8
:101D6000FFFDCDEFFFFFFF700000AFFFFFA40000FD
:101D7000016DFFFFF40002FFFFF40000000000AF60
:101D8000FFFC0008FFFF6000000000000CFFFF20C8
:101D90000BFFFE00000000000004FFFF500CFFFCE2
:101DA00000000000000001FFFF600CFFFC000000CD
:101DB00000000002FFFF600AFFFF000000000000BB
:101DC00005FFFF3005FFFF8000000000000DFFFE53
:101DD0000000DFFFF70000000001CFFFF700003F29
:101DE000FFFFD73100149FFFFFB0000003EFFFFF9C
:101DF000FFFFFFFFFFFA000000001CFFFFFFFFFFD7
:101E0000FFFF6000000003CFFFFFFFFFFFFFFFF9B0
:101E10000000006FFFFFFEB999ADFFFFFFD2000584
:101E2000FFFFFA3000000016EFFFFD101EFFFF500D
:101E300000000000000BFFFF907FFFF70000000094
:101E4000000000DFFFF1BFFFE00000000000000025
:101E50005FFFF5EFFFB0000000000000001FFFF87B
:101E6000FFFFA0000000000000000FFFF9EFFFC01F
:101E7000000000000000002FFFF8BFFFF10000008D
:101E8000000000007FFFF57FFFFA00000000000067
:101E900002FFFFF11FFFFFA000000000003EFFFF58
:101EA000A006FFFFFE720000004AFFFFFE10008F39
:101EB000FFFFFFFDCDEFFFFFFFF3000006FFFFFF79
:101EC000FFFFFFFFFFFD2000000019FFFFFFFFFFE6
:101ED000FFFD600000000000059CEFFFEDA7300053
:101EE000000000000006ADFFFEC84000000000003A
:101EF0000008FFFFFFFFFFFE600000000003EFFF90
:101F0000FFFFFFFFFFFC100000003FFFFFFFECDEC4
:101F1000FFFFFFD1000001EFFFFD61000027EFFF91
:101F2000FD000009FFFFA0000000000AFFFF800085
:101F30001FFFFC000000000000AFFFF2006FFFF386
:101F40000000000000001FFFF9009FFFE0000000FC
:101F50000000000BFFFF00AFFFC00000000000000A
:101F600008FFFF50BFFFC000000000000009FFFF96
:101F7000809FFFF00000000000000CFFFFC06FFF1B
:101F8000F40000000000003FFFFFE02FFFFD100005
:101F900000000001DFFFFFF00BFFFFC200000000A8
:101FA0002CFFFFFFF102FFFFFFA410025AFFFFEF1B
:101FB000FFF2004FFFFFFFFFFFFFFFFC7FFFF2007C
:101FC00004EFFFFFFFFFFFFFA07FFFF1000018EF0E
:101FD000FFFFFFFFC4008FFFF0000000048ACCB9B0
:101FE0007200009FFFE00000000000000000000001
:101FF000DFFFC000000000000000000000FFFF90B5
:1020000000000000000000000005FFFF400000008D
:102010000000000000000CFFFF00000000000000B6
:102020000000004FFFF90000000000000000000168
:10203000EFFFF20000000000000000002DFFFF8015
:10204000000003200000000006EFFFFD0000000D6F
:10205000FB63101248DFFFFFE20000004FFFFFFFAD
:10206000FFFFFFFFFE20000000CFFFFFFFFFFFFF8D
:10207000FFA1000000005DFFFFFFFFFFFFB40000B5
:102080000000000037ADEFFEDA610000000000063E
:10209000DFA105FFFFC0CFFFFF2DFFFFF39FFFFE76
:1020A00001CFFF50004510000000000000000000BC
:1020B0000000000000000000000000000000000020
:1020C00000000000000000000000000000000045CB
:1020D0001001CFFF509FFFFF0DFFFFF3CFFFFF2544
:1020E000FFFFC006DFA10006DFA105FFFFC0CFFF95
:1020F000FF2DFFFFF39FFFFE01CFFF5000451000B3
:1021000000000000000000000000000000000000CF
:1021100000000000000000000000000000000000BF
:10212000000000000000000000006EFB105FFFFCDC
:102130000BFFFFF2BFFFFF37FFFFF10AFFFD000FAC
:10214000FF7003FFF2007FFD000BFF8000FFF20035
:102150003FFD0007FF8000000000000000000000BD
:10216000025000000000000000005CFB00000000C6
:1021700000000028EFFFB0000000000005CFFFFFC7
:10218000FB00000000028EFFFFFFFB400000005B31
:10219000FFFFFFFE8100000028EFFFFFFFA400000B
:1021A0000005BFFFFFFFD7100000008EFFFFFFFA02
:1021B00030000000000EFFFFFC6000000000000087
:1021C000EFFFD3000000000000000EFFFFE820003A
:1021D0000000000000CFFFFFFFB50000000000007E
:1021E0003AFFFFFFFE820000000000016DFFFFFFCD
:1021F000FC60000000000003AFFFFFFFF9300000AB
:1022000000000017DFFFFFFFC60000000000003ADB
:10221000FFFFFFFA000000000000017DFFFFB0009B
:1022200000000000000003AFFB0000000000000001
:1022300000001780ABBBBBBBBBBBBBBBBBBB7EFF4C
:10224000FFFFFFFFFFFFFFFFFBEFFFFFFFFFFFFFB2
:10225000FFFFFFBEFFFFFFFFFFFFFFFFFFFB0000D1
:10226000000000000000000000000000000000006E
:10227000000000000000000000000000000000005E
:10228000000000000000000000000000000000004E
:10229000000000000000000000000000000000003E
:1022A000000000000000000ABBBBBBBBBBBBBBBB4C
:1022B000BBB7EFFFFFFFFFFFFFFFFFFFBEFFFFFF0B
:1022C000FFFFFFFFFFFFFBEFFFFFFFFFFFFFFFFF32
:1022D000FFB0610000000000000000000EFA4000A6
:1022E00000000000000000EFFFD710000000000019
:1022F000000EFFFFFFA40000000000006CFFFFFFC6
:10230000FD710000000000039FFFFFFFFA30000096
:1023100000000005CFFFFFFFD710000000000028DD
:10232000EFFFFFFFA30000000000005BFFFFFFFDC9
:10233000500000000000017DFFFFFB0000000000D6
:10234000000005EFFFB000000000000039FFFFFBB8
:10235000000000000016DFFFFFFF8000000003AF59
:10236000FFFFFFE8200000017DFFFFFFFB500000A2
:10237000004AFFFFFFFE8200000028EFFFFFFFB5CD
:10238000000000000EFFFFFFE8200000000000EF4B
:10239000FFFB500000000000000EFE820000000065
:1023A00000000000A5000000000000000000000088
:1023B000000016ACEFFEDB8300000000003BFFFFD7
:1023C000FFFFFFFFD400000009FFFFFFFFFFFFFF3B
:1023D000FF900001DFFFFFFFFFFFFFFFFFF9001E7F
:1023E000FFFFFD73100149FFFFFF403EFFFE50005D
:1023F0000000002DFFFFB001BFC10000000000027F
:10240000FFFFF0000610000000000000AFFFF20028
:1024100000000000000000007FFFF300000000004B
:10242000000000008FFFF10000000000000000002D
:10243000BFFFE0000000000000000002FFFF90006E
:10244000000000000000001DFFFF20000000000051
:10245000000001CFFFF700000000000000001DFF9A
:10246000FF900000000000000002DFFFF900000004
:1024700000000000002EFFFF8000000000000000B0
:1024800000DFFFF8000000000000000008FFFFA0D0
:1024900000000000000000000FFFFD000000000031
:1024A000000000004FFFF6000000000000000000E8
:1024B0006FFFF3000000000000000000377770009D
:1024C000000000000000000000000000000000000C
:1024D00000000000000000000000000000000000FC
:1024E00000000000000000000000000000000000EC
:1024F00000000000000000001AED60000000000075
:1025000000000000BFFFF500000000000000000117
:10251000FFFFFB000000000000000001FFFFFB00C8
:102520000000000000000000BFFFF50000000000F8
:10253000000000001AED6000000000000000000034
:1025400000000369CDEFFEDB9620000000000000D4
:102550000000000000000029EFFFFFFFFFFFFFFD6C
:102560008100000000000000000000003BFFFFFFB2
:10257000FFFFFFFFFFFFFFA20000000000000000C0
:102580000019FFFFFFB8532112368CFFFFFF8000B8
:1025900000000000000003EFFFFC510000000000FD
:1025A0000016DFFFFC100000000000005FFFFD4090
:1025B000000000000000000004DFFFE30000000056
:1025C0000005FFFF80000000000000000000000880
:1025D000FFFE20000000004FFFF50000000000009B
:1025E0000000000000005FFFE100000001EFFF407D
:1025F00000000000000000000000000004FFFB00DD
:1026000000000AFFF50000000027BEFFDB61000AA2
:10261000FFF5005FFF6000004FFF900000001AFF11
:10262000FFFFFFFF800AFFF5000AFFE00000BFFE8A
:1026300010000004FFFFFFFFFFFFFD1AFFF5000180
:10264000EFF70003FFF70000004FFFFFFDB9ADFFFC
:10265000FFDBFFF500007FFE0009FFE0000002FF46
:10266000FFFA20000029FFFFFFF500001FFF400ECA
:10267000FF9000000BFFFF50000000005FFFFFF520
:1026800000000BFF902FFF4000003FFFF60000000E
:10269000000006FFFFF5000005FFD05FFF0000000F
:1026A000AFFFC0000000000000AFFFF5000002FF18
:1026B000F08FFD000000EFFF500000000000003F21
:1026C000FFF5000000FFF2AFFB000002FFFF00007B
:1026D00000000000000EFFF5000000EFF3BFFA005D
:1026E0000004FFFD000000000000000BFFF50000EB
:1026F00000DFF4CFF9000005FFFC0000000000003F
:102700000009FFF5000000CFF5CFF9000005FFFC40
:102710000000000000000009FFF5000000CFF4BF3A
:10272000FA000004FFFD000000000000000BFFF5B0
:10273000000000DFF4AFFB000002FFFF000000001C
:102740000000000EFFF5000000FFF28FFE00000009
:10275000EFFF500000000000003FFFF5000001FF08
:10276000F05FFF1000009FFFC0000000000000AFFE
:10277000FFF5000005FFD02FFF5000003FFFF600DF
:102780000000000005FFFFF600000BFF800DFFA01A
:1027900000000BFFFF50000000005FFFFFF800008B
:1027A0002FFF3008FFF1000002FFFFFA20000019A0
:1027B000FFFEFFFE1001DFFC0002FFF70000004FEC
:1027C000FFFFFCA99CFFFFC2FFFFEAAFFFF3000081
:1027D000BFFE10000004EFFFFFFFFFFFFD10AFFF83
:1027E000FFFFFF7000003FFFA00000001AFFFFFF87
:1027F000FFFF80001CFFFFFFF700000009FFF6004D
:1028000000000027BEFFEB710000007CFFD9200014
:10281000000001EFFF400000000000000000000089
:102820000000000000000000003FFFF50000000075
:102830000000000000000000000000000000000593
:10284000FFFF80000000000000000000000000000A
:102850000000000000005FFFFD40000000000000DD
:1028600000000000000000000000000003EFFFFC7B
:10287000610000000000003AC000000000000000FD
:102880000000001AFFFFFFC853322357AEFFF200CB
:10289000000000000000000000004CFFFFFFFFFFF1
:1028A000FFFFFFFFF7000000000000000000000035
:1028B0000039EFFFFFFFFFFFFFFB400000000000BB
:1028C0000000000000000000037ACEEFFEDA840072
:1028D00000000000000000000000000000000BFFEE
:1028E000FF50000000000000000000000000000297
:1028F000FFFFFC00000000000000000000000000DE
:10290000009FFFFFF3000000000000000000000037
:1029100000001FFFFFFFA0000000000000000000FB
:1029200000000007FFFFFFFF100000000000000094
:102930000000000000EFFF8EFFF800000000000024
:102940000000000000005FFFF17FFFE000000000DA
:10295000000000000000000CFFFA01FFFF60000013
:10296000000000000000000003FFFF300AFFFD0030
:1029700000000000000000000000AFFFC0003FFFAB
:10298000F4000000000000000000001FFFF5000040
:10299000CFFFB000000000000000000008FFFE00B4
:1029A0000005FFFF30000000000000000000FFFFF6
:1029B0007000000EFFFA0000000000000000006F31
:1029C000FFF10000007FFFF10000000000000000A8
:1029D0000DFFFA00000001FFFF8000000000000072
:1029E0000005FFFF300000000AFFFE0000000000AD
:1029F000000000CFFFC0000000003FFFF600000015
:102A0000000000003FFFF50000000000CFFFD000F5
:102A100000000000000AFFFE000000000005FFFFAC
:102A200040000000000001FFFF7000000000000EE9
:102A3000FFFB0000000000008FFFF100000000001D
:102A4000007FFFF200000000000EFFFFFFFFFFFF0E
:102A5000FFFFFFFFFF900000000006FFFFFFFFFFEA
:102A6000FFFFFFFFFFFFFF1000000000DFFFFFFF81
:102A7000FFFFFFFFFFFFFFFFF8000000004FFFFC1C
:102A8000CCCCCCCCCCCCCCCCEFFFE00000000BFF0E
:102A9000FE000000000000000005FFFF60000002D3
:102AA000FFFF7000000000000000000EFFFD0000AE
:102AB000009FFFF10000000000000000007FFFF415
:102AC00000001FFFF900000000000000000001FFEF
:102AD000FFB00008FFFF3000000000000000000011
:102AE00009FFFF2000EFFFC0000000000000000011
:102AF00000003FFFF9006FFFF5000000000000003C
:102B000000000000CFFFF10DFFFE000000000000FC
:102B1000000000000005FFFF702FFFFFFFFFFFFF19
:102B2000FFEEB85000000002FFFFFFFFFFFFFFFFB6
:102B3000FFFFE80000002FFFFFFFFFFFFFFFFFFF89
:102B4000FFFE200002FFFFECCCCCCCCCDEFFFFFF71
:102B5000FE20002FFFF70000000000004BFFFFFCED
:102B60000002FFFF7000000000000004FFFFF400FF
:102B70002FFFF70000000000000006FFFF9002FF9B
:102B8000FF70000000000000000FFFFB002FFFF7A8
:102B90000000000000000000DFFFC002FFFF700027
:102BA0000000000000000DFFFB002FFFF7000000F9
:102BB0000000000000FFFF9002FFFF700000000017
:102BC0000000006FFFF4002FFFF70000000000007E
:102BD000004FFFFD0002FFFF70000000000004AF87
:102BE000FFFF20002FFFFECCCCCCCCCCDFFFFFFEC4
:102BF000400002FFFFFFFFFFFFFFFFFFFFFD100090
:102C0000002FFFFFFFFFFFFFFFFFFFFFFE6000023F
:102C1000FFFFFFFFFFFFFFFFFFFFFFFFB0002FFFE2
:102C2000F700000000000136BFFFFFB002FFFF7099
:102C3000000000000000003DFFFF602FFFF70000D4
:102C40000000000000001FFFFE02FFFF70000000F8
:102C500000000000008FFFF32FFFF70000000000CE
:102C600000000003FFFF62FFFF7000000000000093
:102C700000002FFFF72FFFF700000000000000000A
:102C800003FFFF72FFFF7000000000000000006FF4
:102C9000FFF52FFFF700000000000000000DFFFF10
:102CA00022FFFF70000000000000000AFFFFD02F8D
:102CB000FFF7000000000000027EFFFFF402FFFFAC
:102CC000ECCCCCCCCCCCDFFFFFFFF9002FFFFFFF1B
:102CD000FFFFFFFFFFFFFFFFF80002FFFFFFFFFF07
:102CE000FFFFFFFFFFFFB200002FFFFFFFFFFFFF0F
:102CF000FFFEEC961000000000000000000169CE0D
:102D0000FFFDB8400000000000000004CFFFFFFFFF
:102D1000FFFFFE81000000000003DFFFFFFFFFFF59
:102D2000FFFFFF70000000008FFFFFFFFFFFFFFFAE
:102D3000FFFFFC1000000AFFFFFFFB7432458DFF10
:102D4000FFFFD10000AFFFFFF810000000002BFFD5
:102D5000FFE20008FFFFFB100000000000004EFE35
:102D600020003FFFFF900000000000000002B200C2
:102D700000DFFFFA00000000000000000000000576
:102D8000FFFFD000000000000000000000000BFF6B
:102D9000FF4000000000000000000000001FFFFCDA
:102DA0000000000000000000000000005FFFF700CE
:102DB00000000000000000000000008FFFF2000093
:102DC00000000000000000000000AFFFF000000065
:102DD000000000000000000000BFFFD00000000065
:102DE0000000000000000000CFFFD0000000000045
:102DF00000000000000000BFFFD000000000000045
:102E0000000000000000AFFFF00000000000000024
:102E100000000000008FFFF2000000000000000032
:102E2000000000005FFFF70000000000000000004D
:102E30000000001FFFFC0000000000000000000078
:102E400000000BFFFF400000000000000000000039
:102E50000005FFFFD000000000000000000000009F
:102E600000DFFFFA0000000000000000000000008A
:102E70003FFFFF900000000000000002C2000008B9
:102E8000FFFFFB100000000000005FFE200000AF0D
:102E9000FFFFF810000000003BFFFFE200000BFF07
:102EA000FFFFFB7432458DFFFFFFD10000008FFF55
:102EB000FFFFFFFFFFFFFFFFFB1000000003DFFF2E
:102EC000FFFFFFFFFFFFFF70000000000005CFFFC6
:102ED000FFFFFFFFFE81000000000000000169CE3F
:102EE000FFFDB8400000002FFFFFFFFFFFFFFFECDA
:102EF000961000000000002FFFFFFFFFFFFFFFFF05
:102F0000FFFC50000000002FFFFFFFFFFFFFFFFF4F
:102F1000FFFFFD400000002FFFFFFFFFFFFFFFFF4F
:102F2000FFFFFFF90000002FFFF7111111111246EA
:102F3000AFFFFFFFC100002FFFF7000000000000FF
:102F4000006EFFFFFC00002FFFF7000000000000F4
:102F500000009FFFFFA0002FFFF70000000000000F
:102F6000000006FFFFF5002FFFF700000000000043
:102F70000000007FFFFD002FFFF7000000000000B1
:102F80000000000CFFFF602FFFF7000000000000B2
:102F900000000002FFFFC02FFFF70000000000004C
:102FA00000000000BFFFF12FFFF70000000000004D
:102FB000000000006FFFF52FFFF700000000000089
:102FC000000000002FFFF82FFFF7000000000000B6
:102FD000000000000FFFFA2FFFF7000000000000C4
:102FE000000000000DFFFB2FFFF7000000000000B5
:102FF000000000000DFFFC2FFFF7000000000000A4
:10300000000000000DFFFB2FFFF700000000000094
:10301000000000000FFFFA2FFFF700000000000083
:10302000000000002FFFF82FFFF700000000000055
:10303000000000006FFFF52FFFF700000000000008
:1030400000000000BFFFF12FFFF7000000000000AC
:1030500000000002FFFFC02FFFF70000000000008B
:103060000000000BFFFF602FFFF7000000000000D2
:103070000000007FFFFD002FFFF7000000000000B0
:10308000000006FFFFF5002FFFF700000000000022
:1030900000009FFFFFA0002FFFF7000000000000CE
:1030A000006EFFFFFC00002FFFF711111111123607
:1030B000AFFFFFFFC100002FFFFFFFFFFFFFFFFF7C
:1030C000FFFFFFFA0000002FFFFFFFFFFFFFFFFFE2
:1030D000FFFFFD400000002FFFFFFFFFFFFFFFFF8E
:1030E000FFFC50000000002FFFFFFFFFFFFFFFEC81
:1030F000961000000000002FFFFFFFFFFFFFFFFF03
:10310000FFFFF802FFFFFFFFFFFFFFFFFFFFFF8052
:103110002FFFFFFFFFFFFFFFFFFFFFF802FFFFFF93
:10312000FFFFFFFFFFFFFFFF802FFFF711111111BE
:10313000111111111002FFFF7000000000000000CB
:1031400000002FFFF700000000000000000002FF59
:10315000FF700000000000000000002FFFF70000DB
:103160000000000000000002FFFF700000000000EF
:10317000000000002FFFF70000000000000000002A
:1031800002FFFF700000000000000000002FFFF7AA
:1031900000000000000000000002FFFF70000000BF
:1031A0000000000000002FFFFFFFFFFFFFFFFFFFF9
:1031B000F80002FFFFFFFFFFFFFFFFFFFF90002F60
:1031C000FFFFFFFFFFFFFFFFFFF90002FFFFFFFF11
:1031D000FFFFFFFFFFFF90002FFFF7000000000040
:1031E0000000000002FFFF7000000000000000006F
:1031F000002FFFF700000000000000000002FFFFAA
:10320000700000000000000000002FFFF700000029
:1032100000000000000002FFFF700000000000003E
:103220000000002FFFF70000000000000000000277
:10323000FFFF700000000000000000002FFFF700FB
:10324000000000000000000002FFFF70000000000E
:1032500000000000002FFFF71111111111111111C1
:103260001102FFFFFFFFFFFFFFFFFFFFFFF32FFF35
:10327000FFFFFFFFFFFFFFFFFFFF32FFFFFFFFFF2B
:10328000FFFFFFFFFFFFF32FFFFFFFFFFFFFFFFF2A
:10329000FFFFFF302FFFFFFFFFFFFFFFFFFFFFF8E4
:1032A0002FFFFFFFFFFFFFFFFFFFFFF82FFFFFFFD5
:1032B000FFFFFFFFFFFFFFF82FFFFFFFFFFFFFFFF5
:1032C000FFFFFFF82FFFF71111111111111111104C
:1032D0002FFFF70000000000000000002FFFF700A4
:1032E00000000000000000002FFFF70000000000B9
:1032F000000000002FFFF7000000000000000000A9
:103300002FFFF70000000000000000002FFFF70073
:1033100000000000000000002FFFF7000000000088
:10332000000000002FFFF700000000000000000078
:103330002FFFF70000000000000000002FFFF70043
:1033400000000000000000002FFFF7000000000058
:10335000000000002FFFFFFFFFFFFFFFFFFFF9004E
:103360002FFFFFFFFFFFFFFFFFFFF9002FFFFFFF12
:10337000FFFFFFFFFFFFF9002FFFFFFFFFFFFFFF32
:10338000FFFFF9002FFFF700000000000000000021
:103390002FFFF70000000000000000002FFFF700E3
:1033A00000000000000000002FFFF70000000000F8
:1033B000000000002FFFF7000000000000000000E8
:1033C0002FFFF70000000000000000002FFFF700B3
:1033D00000000000000000002FFFF70000000000C8
:1033E000000000002FFFF7000000000000000000B8
:1033F0002FFFF70000000000000000002FFFF70083
:1034000000000000000000002FFFF7000000000097
:10341000000000002FFFF700000000000000000087
:1034200000000000000169CEFFFEC951000000004D
:1034300000000004BFFFFFFFFFFFFFB3000000001C
:103440000003CFFFFFFFFFFFFFFFFFB10000000001
:103450008FFFFFFFFFFFFFFFFFFFFE4000000AFF9F
:10346000FFFFFC7532357BFFFFFFF50000AFFFFF6C
:10347000F8100000000007FFFFF50008FFFFFB1039
:103480000000000000001BFF50003FFFFF90000005
:10349000000000000000750000CFFFFA00000000EF
:1034A0000000000000000004FFFFD000000000004A
:1034B0000000000000000BFFFF40000000000000C3
:1034C00000000000001FFFFC0000000000000000E2
:1034D000000000005FFFF700000000000000000097
:1034E0000000008FFFF2000000000000000000005C
:1034F0000000AFFFF000000000000000000000002E
:1035000000BFFFD00000000000000000000000002D
:10351000CFFFD000000000000000000009BBB6BFD4
:10352000FFD00000000000000000000DFFF9AFFF19
:10353000F00000000000000000000DFFF98FFFF216
:103540000000000000000000000DFFF95FFFF70021
:1035500000000000000000000DFFF91FFFFD00004B
:10356000000000000000000DFFF90BFFFF500000FD
:103570000000000000000DFFF904FFFFE000000064
:1035800000000000000DFFF900CFFFFA000000006E
:10359000000000000DFFF9003FFFFFA00000000049
:1035A0000000000DFFF90007FFFFFC2000000000F5
:1035B00000000EFFF90000AFFFFFF8100000000050
:1035C00005DFFFF900000AFFFFFFFC7532347AFFC8
:1035D000FFFFF80000007FFFFFFFFFFFFFFFFFFF7F
:1035E000FF9000000003CFFFFFFFFFFFFFFFFFD4AE
:1035F000000000000004BFFFFFFFFFFFFFB400005A
:1036000000000000000169CEFFFEC9510000002F3C
:10361000FFF7000000000000000001FFFF82FFFF35
:103620007000000000000000001FFFF82FFFF700EF
:103630000000000000000001FFFF82FFFF7000009B
:103640000000000000001FFFF82FFFF7000000003F
:103650000000000001FFFF82FFFF7000000000007B
:103660000000001FFFF82FFFF7000000000000001F
:103670000001FFFF82FFFF7000000000000000005B
:103680001FFFF82FFFF7000000000000000001FFFF
:10369000FF82FFFF7000000000000000001FFFF825
:1036A0002FFFF7000000000000000001FFFF82FF75
:1036B000FF7000000000000000001FFFF82FFFF760
:1036C000000000000000000001FFFF82FFFF70000B
:1036D000000000000000001FFFF82FFFFFFFFFFFAA
:1036E000FFFFFFFFFFFFFFFF82FFFFFFFFFFFFFF67
:1036F000FFFFFFFFFFFFF82FFFFFFFFFFFFFFFFFB1
:10370000FFFFFFFFFF82FFFFFFFFFFFFFFFFFFFF46
:10371000FFFFFFF82FFFF7111111111111111112F5
:10372000FFFF82FFFF7000000000000000001FFF8D
:10373000F82FFFF7000000000000000001FFFF82EB
:10374000FFFF7000000000000000001FFFF82FFFC7
:10375000F7000000000000000001FFFF82FFFF7083
:1037600000000000000000001FFFF82FFFF700001E
:1037700000000000000001FFFF82FFFF700000005A
:1037800000000000001FFFF82FFFF70000000000FE
:1037900000000001FFFF82FFFF700000000000003A
:1037A00000001FFFF82FFFF70000000000000000DE
:1037B00001FFFF82FFFF7000000000000000001FFB
:1037C000FFF82FFFF7000000000000000001FFFFDE
:1037D00082FFFF7000000000000000001FFFF82FB4
:1037E000FFF7000000000000000001FFFF802FFF36
:1037F000F72FFFF72FFFF72FFFF72FFFF72FFFF719
:103800002FFFF72FFFF72FFFF72FFFF72FFFF72FD0
:10381000FFF72FFFF72FFFF72FFFF72FFFF72FFFF0
:10382000F72FFFF72FFFF72FFFF72FFFF72FFFF7E8
:103830002FFFF72FFFF72FFFF72FFFF72FFFF72FA0
:10384000FFF72FFFF72FFFF72FFFF72FFFF72FFFC0
:10385000F70002FFFFFFFFFFFFFFFF00002FFFFF4A
:10386000FFFFFFFFFFF00002FFFFFFFFFFFFFFFF73
:1038700000002FFFFFFFFFFFFFFFF00000111111FD
:10388000111118FFFF00000000000000008FFFF082
:103890000000000000000008FFFF00000000000022
:1038A00000008FFFF00000000000000008FFFF0094
:1038B000000000000000008FFFF00000000000008A
:1038C0000008FFFF00000000000000008FFFF00074
:1038D00000000000000008FFFF00000000000000E2
:1038E000008FFFF00000000000000008FFFF000054
:1038F0000000000000008FFFF0000000000000004A
:1039000008FFFF00000000000000008FFFF0000033
:10391000000000000008FFFF0000000000000000A1
:103920008FFFF00000000000000008FFFF00000013
:1039300000000000008FFFF0000000000000000801
:10394000FFFF00000000000000009FFFF0000000EB
:10395000000000000BFFFE0002800000000000FFDE
:10396000FFB001DF60000000006FFFF700BFFF80C5
:103970000000003FFFFF202FFFFFD731038FFFFF25
:10398000B0005FFFFFFFFFFFFFFFE100005EFFFFF2
:10399000FFFFFFFFF40000001AFFFFFFFFFFC20060
:1039A000000000027BEFFEC8300000002FFFF70090
:1039B000000000000000009FFFFA002FFFF700004A
:1039C000000000000008FFFFB0002FFFF70000001C
:1039D000000000007FFFFC00002FFFF70000000048
:1039E000000006FFFFD100002FFFF70000000000DD
:1039F000005FFFFE1000002FFFF700000000000531
:103A0000FFFFE20000002FFFF700000000004FFF63
:103A1000FF300000002FFFF70000000003FFFFF35E
:103A2000000000002FFFF7000000003FFFFF4000F4
:103A30000000002FFFF700000002EFFFF50000007C
:103A400000002FFFF70000002EFFFF6000000000C5
:103A5000002FFFF7000001EFFFF80000000000005A
:103A60002FFFF700001DFFFF900000000000002F57
:103A7000FFF70001DFFFFA000000000000002FFF49
:103A8000F7000CFFFFB0000000000000002FFFF760
:103A900000BFFFFFD1000000000000002FFFF70B68
:103AA000FFFFFFFB000000000000002FFFF7AFFF4B
:103AB000FFFFFF800000000000002FFFFEFFFFFB64
:103AC000FFFFF50000000000002FFFFFFFFF40BFD9
:103AD000FFFF3000000000002FFFFFFFF4001DFF7C
:103AE000FFE100000000002FFFFFFF500002EFFF8A
:103AF000FB00000000002FFFFFF50000003FFFFF6C
:103B000090000000002FFFFF6000000006FFFFF69E
:103B1000000000002FFFF800000000008FFFFF30C2
:103B20000000002FFFF700000000000AFFFFE10087
:103B300000002FFFF7000000000000CFFFFC000096
:103B4000002FFFF70000000000001EFFFF900000A4
:103B50002FFFF700000000000003FFFFF600002F1A
:103B6000FFF7000000000000005FFFFF30002FFFA4
:103B7000F70000000000000007FFFFE1002FFFF743
:103B80000000000000000000AFFFFC002FFFF70066
:103B9000000000000000000CFFFF902FFFF7000066
:103BA00000000000000002FFFF70000000000000A5
:103BB00000002FFFF7000000000000000002FFFFE0
:103BC0007000000000000000002FFFF70000000060
:103BD0000000000002FFFF70000000000000000075
:103BE0002FFFF7000000000000000002FFFF700040
:103BF000000000000000002FFFF7000000000000A0
:103C0000000002FFFF7000000000000000002FFF16
:103C1000F7000000000000000002FFFF700000003D
:103C200000000000002FFFF700000000000000006F
:103C300002FFFF7000000000000000002FFFF700EF
:103C40000000000000000002FFFF70000000000004
:103C50000000002FFFF7000000000000000002FF3E
:103C6000FF7000000000000000002FFFF7000000C0
:103C7000000000000002FFFF7000000000000000D4
:103C8000002FFFF7000000000000000002FFFF709F
:103C900000000000000000002FFFF70000000000FF
:103CA00000000002FFFF7000000000000000002F75
:103CB000FFF7000000000000000002FFFF7000009E
:103CC0000000000000002FFFF700000000000000CF
:103CD0000002FFFF7000000000000000002FFFF74F
:103CE000111111111111111102FFFFFFFFFFFFFF51
:103CF000FFFFFFFD2FFFFFFFFFFFFFFFFFFFFFD2D3
:103D0000FFFFFFFFFFFFFFFFFFFFFD2FFFFFFFFF95
:103D1000FFFFFFFFFFFFD02FFFD0000000000000DB
:103D20000000000000001EFFF02FFFF70000000061
:103D300000000000000000009FFFF02FFFFF1000B8
:103D400000000000000000000002FFFFF02FFFFF56
:103D5000A0000000000000000000000BFFFFF02F9B
:103D6000FFFFF3000000000000000000004FFFFF15
:103D7000F02FFFFFFC00000000000000000000DF4B
:103D8000FFFFF02FFFFFFF500000000000000000C9
:103D900006FFFFFFF02FFFFFFFE000000000000024
:103DA00000001EFFFFFFF02FFFFFFFF800000000E4
:103DB000000000009FFFFFFFF02FFFFCFFFF20002F
:103DC000000000000002FFFFAFFFF02FFFF4EFFF45
:103DD000A00000000000000BFFFB5FFFF02FFFF4CE
:103DE0005FFFF40000000000004FFFF25FFFF12FC3
:103DF000FFF40CFFFD000000000000DFFF905FFFFC
:103E0000F12FFFF403FFFF600000000006FFFE102B
:103E10005FFFF12FFFF4009FFFE1000000001EFF95
:103E2000F6005FFFF12FFFF4001EFFF90000000015
:103E30009FFFD0005FFFF12FFFF40006FFFF20007F
:103E40000002FFFF40005FFFF12FFFF40000DFFFE3
:103E5000B000000BFFFA00005FFFF12FFFF400003D
:103E60004FFFF400004FFFF200005FFFF12FFFF45F
:103E700000000AFFFD0000DFFF8000005FFFF12F60
:103E8000FFF4000001FFFF7006FFFE0000005FFF6F
:103E9000F12FFFF40000007FFFF11EFFF50000008E
:103EA0005FFFF12FFFF40000000EFFF99FFFC0003D
:103EB00000005FFFF12FFFF400000005FFFFFFFF90
:103EC000300000005FFFF12FFFF400000000BFFF93
:103ED000FFF9000000005FFFF12FFFF40000000079
:103EE0002FFFFFF1000000005FFFF12FFFF4000043
:103EF000000009FFFF70000000005FFFF12FFFF4DA
:103F00000000000001EFFD00000000005FFFF12F46
:103F1000FFF400000000006FF400000000005FFFED
:103F2000F12FFFF40000000000000000000000007E
:103F30005FFFF12FFFF40000000000000000000010
:103F400000005FFFF12FFFF4000000000000000000
:103F5000000000005FFFF12FFFF4000000000000F0
:103F60000000000000005FFFF12FFFE100000000F3
:103F70000000000001FFFF82FFFFC0000000000002
:103F80000000001FFFF82FFFFF900000000000005E
:103F90000001FFFF82FFFFFF500000000000000053
:103FA0001FFFF82FFFFFFF2000000000000001FFAF
:103FB000FF82FFFFFFFD100000000000001FFFF860
:103FC0002FFFFFFFFB00000000000001FFFF82FF4A
:103FD000FFFFFFF70000000000001FFFF82FFFFDAC
:103FE000FFFFF4000000000001FFFF82FFFF7BFFE6
:103FF000FFE200000000001FFFF82FFFF70DFFFF9A
:10400000C00000000001FFFF82FFFF702FFFFFA034
:10401000000000001FFFF82FFFF7005FFFFF6000A8
:10402000000001FFFF82FFFF70008FFFFF300000E4
:10403000001FFFF82FFFF70000CFFFFE1000000168
:10404000FFFF82FFFF700001EFFFFC0000001FFF79
:10405000F82FFFF7000003FFFFF8000001FFFF82C9
:10406000FFFF70000006FFFFF500001FFFF82FFFA5
:10407000F70000000AFFFFF20001FFFF82FFFF7060
:104080000000000CFFFFD0001FFFF82FFFF700001B
:1040900000002EFFFFB001FFFF82FFFF7000000055
:1040A000004FFFFF701FFFF82FFFF7000000000018
:1040B0007FFFFF41FFFF82FFFF700000000000BF95
:1040C000FFFE3FFFF82FFFF7000000000001DFFFB9
:1040D000FDFFFF82FFFF70000000000002FFFFFFF6
:1040E000FFF82FFFF700000000000005FFFFFFFFB3
:1040F00082FFFF7000000000000009FFFFFFF82FA3
:10410000FFF7000000000000000CFFFFFF82FFFF30
:1041100070000000000000001EFFFFF82FFFF700F6
:10412000000000000000003FFFFF82FFFF70000062
:104130000000000000006FFFF82FFFF700000000F4
:104140000000000000AFFF8000000000000169CE09
:10415000FFEDB840000000000000000000004BFF31
:10416000FFFFFFFFFFF9200000000000000003CF69
:10417000FFFFFFFFFFFFFFFF9100000000000007AF
:10418000FFFFFFFFFFFFFFFFFFFFE3000000000056
:104190000AFFFFFFFB7432358DFFFFFFF5000000C3
:1041A000000AFFFFFF810000000002AFFFFFF500E3
:1041B000000007FFFFFB100000000000004EFFFFA3
:1041C000F3000003FFFFF900000000000000001DE5
:1041D000FFFFD00000CFFFFA000000000000000049
:1041E000001EFFFF70004FFFFD00000000000000F8
:1041F0000000004FFFFE000BFFFF4000000000002A
:104200000000000000AFFFF501FFFFC0000000004C
:1042100000000000000002FFFFB05FFFF700000099
:1042200000000000000000000DFFFF08FFFF20005D
:10423000000000000000000000008FFFF2AFFFF060
:10424000000000000000000000000005FFFF4BFF21
:10425000FD0000000000000000000000003FFFF62D
:10426000CFFFD0000000000000000000000003FFAE
:10427000FF6BFFFD000000000000000000000000D8
:104280003FFFF6AFFFF0000000000000000000005C
:104290000005FFFF48FFFF200000000000000000B5
:1042A0000000008FFFF25FFFF70000000000000039
:1042B000000000000DFFFF01FFFFC0000000000034
:1042C000000000000002FFFFB00BFFFF40000000F5
:1042D00000000000000000AFFFF5004FFFFD0000F0
:1042E00000000000000000004FFFFE0000CFFFFABA
:1042F0000000000000000000001EFFFF700003FF30
:10430000FFF900000000000000001DFFFFD00000CA
:1043100007FFFFFB100000000000004EFFFFF3004E
:1043200000000AFFFFFF810000000002AFFFFFF561
:10433000000000000AFFFFFFFB7432358CFFFFFF17
:10434000F5000000000007FFFFFFFFFFFFFFFFFF7A
:10435000FFE300000000000003CFFFFFFFFFFFFFAF
:10436000FFFF9100000000000000004BFFFFFFFF77
:10437000FFFFF9200000000000000000000169CEEE
:10438000FFFEB8400000000000002FFFFFFFFFFF0E
:10439000FFEDC85000000002FFFFFFFFFFFFFFFF1F
:1043A000FFF92000002FFFFFFFFFFFFFFFFFFFFFD0
:1043B000600002FFFFFFFFFFFFFFFFFFFFFF900016
:1043C0002FFFF711111111237BFFFFFF8002FFFF69
:1043D00070000000000002BFFFFF302FFFF7000059
:1043E00000000000009FFFFC02FFFF7000000000C3
:1043F000000000DFFFF22FFFF700000000000000C8
:1044000005FFFF72FFFF70000000000000000FFFBB
:10441000FA2FFFF70000000000000000DFFFB2FFEE
:10442000FF70000000000000000CFFFC2FFFF700F1
:1044300000000000000000DFFFB2FFFF700000007E
:10444000000000000FFFFA2FFFF70000000000003F
:104450000004FFFF72FFFF7000000000000000CFAB
:10446000FFF22FFFF7000000000000008FFFFC02AA
:10447000FFFF70000000000001AFFFFF402FFFF7BB
:1044800000000000125AFFFFFF9002FFFFFFFFFF36
:10449000FFFFFFFFFFFFA0002FFFFFFFFFFFFFFF5A
:1044A000FFFFFF700002FFFFFFFFFFFFFFFFFFFAAC
:1044B0003000002FFFFFFFFFFFFFFED9610000006B
:1044C00002FFFF71111111000000000000002FFF1A
:1044D000F70000000000000000000002FFFF700075
:1044E0000000000000000000002FFFF700000000A7
:1044F00000000000000002FFFF700000000000004C
:10450000000000002FFFF700000000000000000086
:104510000002FFFF70000000000000000000002FFC
:10452000FFF70000000000000000000002FFFF7025
:10453000000000000000000000002FFFF700000056
:10454000000000000000000000000000000169CE33
:10455000FFEDB8400000000000000000000004BFB4
:10456000FFFFFFFFFFFF92000000000000000002BD
:10457000CFFFFFFFFFFFFFFFFF90000000000000E4
:10458000007FFFFFFFFFFFFFFFFFFFFE3000000087
:10459000000009FFFFFFFB7432358DFFFFFFF500C0
:1045A000000000009FFFFFF810000000003AFFFF2E
:1045B000FF4000000007FFFFFB10000000000000AC
:1045C0004EFFFFF20000002FFFFF900000000000F0
:1045D000000002DFFFFC000000BFFFFA0000000047
:1045E00000000000002EFFFF600003FFFFD000006E
:1045F0000000000000000004FFFFE0000AFFFF4091
:1046000000000000000000000000AFFFF5000FFFF9
:10461000FD00000000000000000000003FFFFA0065
:104620004FFFF700000000000000000000000DFF39
:10463000FF008FFFF20000000000000000000000FB
:1046400008FFFF20AFFFF0000000000000000000A6
:10465000000005FFFF40BFFFD00000000000000089
:104660000000000003FFFF50CFFFD000000000005B
:1046700000000000000003FFFF60CFFFD00000003B
:10468000000000000000000003FFFF60BFFFF0001B
:104690000000000000000000000005FFFF508FFF39
:1046A000F2000000000000000000000008FFFF20F2
:1046B0005FFFF600000000000000000000000CFF9B
:1046C000FF001FFFFC0000000000000000000000D1
:1046D0002FFFFB000CFFFF30000000000000000077
:1046E00000009FFFF60006FFFFC000000000000072
:1046F00000000003FFFFF00000EFFFF800000000E3
:1047000000000000001DFFFF8000005FFFFF700041
:1047100000000000000001CFFFFE0000000AFFFFC4
:10472000F9000000000000002DFFFFF40000000071
:10473000DFFFFFD5000000000018FFFFFF70000042
:1047400000001DFFFFFFE95210136AFFFFFFF70093
:104750000000000001BFFFFFFFFFFFFFFFFFFFFFA3
:104760005000000000000007FFFFFFFFFFFFFFFFFA
:10477000FFB2000000000000000019FFFFFFFFFF74
:10478000FFFFB400000000000000000000059CEFE7
:10479000FFFFFF61000000000000000000000000BB
:1047A00000005FFFFFA000000000083000000000D4
:1047B0000000000005FFFFFB10000001AFE100005A
:1047C000000000000000005FFFFFE830038EFFFBE9
:1047D00000000000000000000003EFFFFFFFFFFFEC
:1047E000FFF5000000000000000000001BFFFFFFBD
:1047F000FFFFFE4000000000000000000000005C21
:10480000FFFFFFFF9100000000000000000000001B
:104810000000269AA85000002FFFFFFFFFFFFFEDCA
:10482000C850000000002FFFFFFFFFFFFFFFFFFF4A
:10483000920000002FFFFFFFFFFFFFFFFFFFFF6061
:1048400000002FFFFFFFFFFFFFFFFFFFFFF900004A
:104850002FFFF711111111237BFFFFFF80002FFFA6
:10486000F70000000000002BFFFFF3002FFFF70010
:104870000000000000009FFFFC002FFFF700000079
:10488000000000000DFFFF202FFFF70000000000D8
:10489000000005FFFF702FFFF70000000000000080
:1048A00000FFFFA02FFFF70000000000000000DF66
:1048B000FFB02FFFF70000000000000000CFFFC096
:1048C0002FFFF70000000000000000DFFFC02FFFF7
:1048D000F70000000000000000FFFFA02FFFF7001E
:1048E00000000000000004FFFF702FFFF700000031
:1048F000000000000CFFFF302FFFF7000000000059
:1049000000008FFFFC002FFFF70000000000001ADE
:10491000FFFFF4002FFFF7000000000259FFFFFF28
:1049200090002FFFFFFFFFFFFFFFFFFFFFFB0000D7
:104930002FFFFFFFFFFFFFFFFFFFFF8000002FFFA4
:10494000FFFFFFFFFFFFFFFFA20000002FFFFFFFA1
:10495000FFFFFFFFFFFF200000002FFFF700000018
:104960000003FFFFC00000002FFFF7000000000061
:104970007FFFF70000002FFFF700000000000CFF92
:10498000FF3000002FFFF7000000000002FFFFD003
:1049900000002FFFF70000000000006FFFF900008B
:1049A0002FFFF70000000000000BFFFF40002FFF6B
:1049B000F700000000000001FFFFE1002FFFF700FB
:1049C0000000000000005FFFFA002FFFF70000006A
:1049D000000000000AFFFF502FFFF700000000005A
:1049E000000001EFFFE10000000038BDFFFEDA74B7
:1049F0000000000000006EFFFFFFFFFFFFE9200046
:104A000000002DFFFFFFFFFFFFFFFFF9100003EF86
:104A1000FFFFFFFFFFFFFFFFFF10000DFFFFFA5238
:104A2000000136AFFFFA00007FFFFD3000000000FC
:104A3000006DF40000EFFFE10000000000000050F6
:104A40000002FFFF7000000000000000000004FFF3
:104A5000FF3000000000000000000004FFFF3000F5
:104A6000000000000000000003FFFF7000000000D5
:104A7000000000000000FFFFE20000000000000056
:104A8000000000BFFFFF5000000000000000000019
:104A90003FFFFFFD72000000000000000005FFFF67
:104AA000FFFFEA62000000000000004EFFFFFFFF72
:104AB000FFE9400000000000007EFFFFFFFFFFFE57
:104AC0008100000000000049EFFFFFFFFFFE6000D3
:104AD0000000000000026AEFFFFFFFF80000000086
:104AE00000000000037DFFFFFF70000000000000D9
:104AF0000000004DFFFFF10000000000000000007A
:104B000000CFFFF6000000000000000000002FFFB3
:104B1000F9000000000000000000000EFFFA000095
:104B200000000000000000000EFFFA00510000002D
:104B300000000000001FFFF800EE40000000000031
:104B40000000AFFFF307FFFC50000000000009FF6A
:104B5000FFD00EFFFFFE9630000148EFFFFF40063A
:104B6000FFFFFFFFFFFFFFFFFFFFF700002BFFFF2F
:104B7000FFFFFFFFFFFFFF5000000039EFFFFFFFC7
:104B8000FFFFFF910000000000037ADEFFFEC95026
:104B9000000000DFFFFFFFFFFFFFFFFFFFFFFFFF42
:104BA000DDFFFFFFFFFFFFFFFFFFFFFFFFFDDFFF59
:104BB000FFFFFFFFFFFFFFFFFFFFFFDDFFFFFFFF27
:104BC000FFFFFFFFFFFFFFFFFD11111111111CFF80
:104BD000FC1111111111100000000000CFFFC000E6
:104BE0000000000000000000000CFFFC00000000BE
:104BF00000000000000000CFFFC000000000000027
:104C0000000000000CFFFC0000000000000000009D
:104C10000000CFFFC0000000000000000000000CFA
:104C2000FFFC0000000000000000000000CFFFC0FB
:104C3000000000000000000000000CFFFC0000006D
:104C40000000000000000000CFFFC00000000000D6
:104C500000000000000CFFFC00000000000000004D
:104C6000000000CFFFC000000000000000000000B6
:104C70000CFFFC0000000000000000000000CFFF5F
:104C8000C0000000000000000000000CFFFC00005D
:104C9000000000000000000000CFFFC00000000086
:104CA0000000000000000CFFFC00000000000000FD
:104CB00000000000CFFFC000000000000000000066
:104CC000000CFFFC0000000000000000000000CF0E
:104CD000FFC0000000000000000000000CFFFC000E
:104CE00000000000000000000000CFFFC000000036
:104CF000000000000000000CFFFC000000000000AD
:104D00000000000000CFFFC0000000000000000015
:104D100000000CFFFC00000000000000000000008C
:104D2000CFFFC0000000000000000000000CFFFCEE
:104D30000000000000000000000000CFFFC00000E5
:104D400000000000000000000CFFFC00000000005C
:104D5000007FFFF200000000000000000AFFFC7F5F
:104D6000FFF200000000000000000AFFFC7FFFF2DD
:104D700000000000000000000AFFFC7FFFF20000BE
:104D80000000000000000AFFFC7FFFF200000000AE
:104D9000000000000AFFFC7FFFF20000000000009E
:104DA00000000AFFFC7FFFF200000000000000008E
:104DB0000AFFFC7FFFF200000000000000000AFF75
:104DC000FC7FFFF200000000000000000AFFFC7FF3
:104DD000FFF200000000000000000AFFFC7FFFF26D
:104DE00000000000000000000AFFFC7FFFF200004E
:104DF0000000000000000AFFFC7FFFF2000000003E
:104E0000000000000AFFFC7FFFF20000000000002D
:104E100000000AFFFC7FFFF200000000000000001D
:104E20000AFFFC7FFFF200000000000000000AFF04
:104E3000FC7FFFF200000000000000000AFFFC7F82
:104E4000FFF200000000000000000AFFFC7FFFF2FC
:104E500000000000000000000AFFFC6FFFF30000EC
:104E60000000000000000BFFFB5FFFF400000000EB
:104E7000000000000CFFFA4FFFF6000000000000E9
:104E800000000FFFF91FFFFA000000000000000003
:104E90002FFFF60DFFFE00000000000000007FFF66
:104EA000F209FFFF5000000000000000DFFFE003F8
:104EB000FFFFE000000000000007FFFF8000CFFFC1
:104EC000FB0000000000005FFFFF10003FFFFFC37A
:104ED0000000000018FFFFF8000007FFFFFFB743C6
:104EE000246AFFFFFFC00000008FFFFFFFFFFFFFEE
:104EF000FFFFFD1000000006FFFFFFFFFFFFFFFFA9
:104F0000A0000000000019FFFFFFFFFFFFC400002A
:104F10000000000000159CEFFEDB72000000000D99
:104F2000FFFF20000000000000000000000FFFF95C
:104F300006FFFF80000000000000000000007FFF6F
:104F4000F200EFFFF000000000000000000000DFB2
:104F5000FFB0008FFFF6000000000000000000041A
:104F6000FFFF40002FFFFD000000000000000000D8
:104F70000BFFFD00000BFFFF4000000000000000E1
:104F8000002FFFF7000004FFFFB00000000000004A
:104F900000009FFFF0000000DFFFF20000000000B3
:104FA000000001FFFF900000006FFFF8000000000C
:104FB00000000007FFFF200000000EFFFE000000C1
:104FC000000000000EFFFB0000000008FFFF600073
:104FD00000000000005FFFF40000000001FFFFD0B0
:104FE000000000000000CFFFD00000000000AFFF75
:104FF000F4000000000003FFFF7000000000004FFD
:10500000FFFB000000000009FFFF0000000000009F
:105010000DFFFF20000000001FFFF900000000004E
:105020000006FFFF80000000007FFFF2000000008C
:10503000000000EFFFE000000000EFFFB000000004
:10504000000000008FFFF600000005FFFF40000099
:1050500000000000001FFFFD0000000CFFFD00002D
:105060000000000000000AFFFF4000003FFFF700C3
:105070000000000000000003FFFFB00000AFFFF1E0
:10508000000000000000000000DFFFF20001FFFF51
:10509000900000000000000000006FFFF80008FF13
:1050A000FF200000000000000000000EFFFE000EC8
:1050B000FFFB0000000000000000000008FFFF6090
:1050C0005FFFF40000000000000000000001FFFF8F
:1050D000D0CFFFD00000000000000000000000AFB3
:1050E000FFF7FFFF7000000000000000000000005C
:1050F0003FFFFFFFFF100000000000000000000065
:10510000000CFFFFFFF9000000000000000000009D
:10511000000006FFFFFFF20000000000000000009A
:1051200000000000EFFFFFB00000000000000000E2
:1051300000000000008FFFFF500000000000000092
:105140000000000000001FFFFD0000000000000044
:105150005FFFF500000000000000003FFFF50000C9
:105160000000000000003FFFF21FFFFB00000000F6
:10517000000000008FFFFB00000000000000008F17
:10518000FFD00BFFFF0000000000000000DFFFFF6A
:105190000000000000000000DFFF8006FFFF50005D
:1051A000000000000003FFFFFF50000000000000AF
:1051B00003FFFF2001FFFFA000000000000008FF28
:1051C000FFFFA000000000000008FFFD0000BFFF7F
:1051D000F00000000000000EFFFFFFF000000000E4
:1051E00000000DFFF800006FFFF400000000000059
:1051F0003FFFFFFFF50000000000003FFFF300004D
:105200001FFFFA0000000000009FFFACFFFA000043
:10521000000000008FFFE000000CFFFE0000000017
:105220000000EFFF57FFFF000000000000DFFF80DD
:10523000000006FFFF400000000003FFFF01FFFF2A
:10524000500000000002FFFF30000001FFFF90004F
:1052500000000009FFFA00CFFFA00000000008FFD7
:10526000FE00000000CFFFE0000000000EFFF50090
:105270007FFFF0000000000DFFF9000000007FFF3D
:10528000F4000000004FFFF0001FFFF500000000D9
:105290002FFFF3000000002FFFF9000000009FFF28
:1052A000A0000CFFFA000000007FFFE000000000FB
:1052B0000CFFFE00000000EFFF500007FFFF0000A2
:1052C0000000DFFF900000000007FFFF3000000437
:1052D000FFFF000001FFFF40000002FFFF40000051
:1052E000000002FFFF80000009FFFA000000CFFF6E
:1052F000A0000007FFFE000000000000DFFFD0005C
:10530000000EFFF50000007FFFE000000CFFF90039
:1053100000000000007FFFF300004FFFF0000000DE
:105320001FFFF400002FFFF40000000000002FFF1B
:10533000F800009FFFA00000000CFFF900007FFFB5
:10534000F00000000000000DFFFD0000EFFF500026
:10535000000007FFFE0000CFFFA0000000000000DB
:1053600008FFFF2004FFFF0000000001FFFF4002D4
:10537000FFFF5000000000000003FFFF800AFFFA5B
:105380000000000000CFFF9007FFFF0000000000BA
:10539000000000DFFFD00FFFF500000000007FFFDE
:1053A000E00CFFFA00000000000000008FFFF24F49
:1053B000FFF000000000001FFFF41FFFF5000000D9
:1053C00000000000003FFFF7AFFFA000000000005A
:1053D0000CFFF97FFFF000000000000000000EFF4E
:1053E000FDFFFF50000000000007FFFECFFFA00000
:1053F0000000000000000009FFFFFFFF00000000A8
:10540000000001FFFFFFFF5000000000000000004F
:1054100003FFFFFFFA00000000000000CFFFFFFFC6
:1054200000000000000000000000EFFFFFF500009A
:1054300000000000006FFFFFFB0000000000000004
:105440000000009FFFFFF0000000000000001FFFB1
:10545000FFF6000000000000000000004FFFFFA06A
:10546000000000000000000CFFFFF1000000000041
:1054700000000000000EFFFF5000000000000000D0
:1054800006FFFFB0000000000005FFFFD000000095
:105490000000000000CFFFF30009FFFFA0000000A4
:1054A000000000008FFFF700000DFFFF500000001C
:1054B0000000004FFFFB0000003FFFFF1000000056
:1054C00000001EFFFE100000007FFFFC0000000037
:1054D000000AFFFF5000000000CFFFF700000000AF
:1054E00005FFFF900000000002FFFFF30000000135
:1054F000FFFFD0000000000005FFFFD0000000CF3C
:10550000FFF30000000000000AFFFF9000007FFF93
:10551000F7000000000000001EFFFF50003FFFFBEF
:1055200000000000000000004FFFFE100DFFFE1005
:1055300000000000000000008FFFFB09FFFF50008B
:105540000000000000000000CFFFFAFFFF90000005
:105550000000000000000002FFFFFFFFD00000007D
:105560000000000000000006FFFFFFF30000000045
:10557000000000000000000BFFFFF700000000002B
:10558000000000000000009FFFFF900000000000EE
:105590000000000000005FFFFFFF4000000000006F
:1055A00000000000001EFFFFFFFE100000000000D2
:1055B000000000000BFFFFBFFFFB00000000000029
:1055C00000000007FFFF90CFFFF600000000000082
:1055D000000003FFFFD002FFFFF200000000000008
:1055E0000000DFFFF30006FFFFD000000000000016
:1055F000009FFFF800000AFFFF900000000000007D
:105600005FFFFC0000001EFFFF4000000000001EC6
:10561000FFFF200000004FFFFE10000000000BFF06
:10562000FF60000000008FFFFB0000000007FFFF8D
:10563000B00000000000DFFFF600000003FFFFE104
:10564000000000000002FFFFF2000000DFFFF50095
:10565000000000000006FFFFD000009FFFFA0000DE
:1056600000000000000BFFFF90005FFFFE00000045
:1056700000000000001EFFFF401EFFFF3000000082
:1056800000000000004FFFFE100DFFFF10000000A3
:10569000000000000000DFFFA04FFFF90000000045
:1056A00000000000008FFFF100BFFFF300000000CA
:1056B000000000002FFFF70002FFFFC00000000005
:1056C0000000000BFFFD000008FFFF60000000006D
:1056D000000004FFFF4000000EFFFE10000000006D
:1056E0000000DFFFB00000005FFFF90000000000D5
:1056F000007FFFF200000000BFFFF3000000000089
:105700001FFFF80000000002FFFFC0000000000AB9
:10571000FFFE000000000008FFFF5000000004FF33
:10572000FF5000000000000EFFFE00000000DFFF41
:10573000B00000000000005FFFF80000007FFFF2F3
:1057400000000000000000BFFFF200001FFFF80093
:1057500000000000000002FFFFB0000AFFFE000092
:1057600000000000000008FFFF5003FFFF50000092
:105770000000000000000EFFFE00DFFFC000000080
:105780000000000000005FFFF86FFFF20000000063
:10579000000000000000CFFFFFFFF9000000000044
:1057A000000000000003FFFFFFFE100000000000EB
:1057B000000000000009FFFFFF6000000000000083
:1057C00000000000001EFFFFC000000000000000FD
:1057D00000000000007FFFF4000000000000000057
:1057E0000000000006FFFF20000000000000000095
:1057F000000000006FFFF200000000000000000049
:1058000000000006FFFF2000000000000000000074
:105810000000006FFFF20000000000000000000028
:10582000000006FFFF200000000000000000000054
:1058300000006FFFF2000000000000000000000008
:105840000006FFFF20000000000000000000000034
:10585000006FFFF2000000000000000000000000E8
:1058600006FFFF2000000000000000000000000014
:105870006FFFF200000000000000000000000006C2
:10588000FFFF200000000000000BFFFFFFFFFFFFF5
:10589000FFFFFFFFFFFFF40BFFFFFFFFFFFFFFFF17
:1058A000FFFFFFFFF40BFFFFFFFFFFFFFFFFFFFF07
:1058B000FFFFF40BFFFFFFFFFFFFFFFFFFFFFFFFF7
:1058C000E1001111111111111111113FFFFF4000E1
:1058D000000000000000000000DFFFF700000000F3
:1058E0000000000000000AFFFFB000000000000000
:1058F000000000007FFFFD0000000000000000002D
:105900000004FFFFF2000000000000000000001E85
:10591000FFFF5000000000000000000000CFFFF972
:105920000000000000000000000009FFFFC00000B0
:1059300000000000000000006FFFFE1000000000EB
:10594000000000000003FFFFF30000000000000063
:105950000000001EFFFF70000000000000000000BB
:1059600000BFFFFA0000000000000000000008FF78
:10597000FFD0000000000000000000005FFFFF20DB
:1059800000000000000000000002FFFFF500000022
:10599000000000000000000DFFFF8000000000007C
:1059A0000000000000AFFFFB00000000000000004E
:1059B000000007FFFFE10000000000000000000001
:1059C0004FFFFF3000000000000000000001EFFF6B
:1059D000F6000000000000000000000CFFFF900037
:1059E0000000000000000000009FFFFC000000001D
:1059F00000000000000006FFFFE1000000000000C2
:105A0000000000003FFFFF40000000000000000019
:105A10000001EFFFF8111111111111111111100BEB
:105A2000FFFFFFFFFFFFFFFFFFFFFFFFFE0FFFFF77
:105A3000FFFFFFFFFFFFFFFFFFFFFE0FFFFFFFFF67
:105A4000FFFFFFFFFFFFFFFFFE0FFFFFFFFFFFFF57
:105A5000FFFFFFFFFFFFFE2FFFFFFFFF72FFFFFFB4
:105A6000FFF72FFFFFFFFF72FFFFCBBBB42FFFF449
:105A7000000002FFFF4000002FFFF4000002FFFFC4
:105A80004000002FFFF4000002FFFF4000002FFF46
:105A9000F4000002FFFF4000002FFFF4000002FFAF
:105AA000FF4000002FFFF4000002FFFF4000002F26
:105AB000FFF4000002FFFF4000002FFFF40000028F
:105AC000FFFF4000002FFFF4000002FFFF40000036
:105AD0002FFFF4000002FFFF4000002FFFF4000042
