:020000040800F2
:1000000084FC00203D870508F5700508F770050899
:10001000F9700508FB700508FD7005080000000078
:10002000000000000000000000000000FF70050854
:10003000017105080000000003710508057105083D
:10004000998D05089D8D0508A18D0508A58D0508CC
:10005000A98D0508AD8D0508B18D0508B58D05087C
:10006000B98D0508BD8D0508C18D050813710508FA
:10007000C58D0508C98D0508CD8D0508D18D0508EC
:10008000D58D0508D98D05081D710508DD8D05087C
:1000900027710508E18D0508E58D0508E98D05083E
:1000A000ED8D0508F18D0508F58D0508F98D05081C
:1000B000FD8D0508018E0508058E0508098E0508C9
:1000C0000D8E0508118E0508158E0508198E050878
:1000D0001D8E0508218E0508258E0508298E050828
:1000E0002D8E0508318E0508358E0508398E0508D8
:1000F0003D8E0508418E0508458E0508498E050888
:100100004D8E0508518E0508558E0508598E050837
:100110005D8E0508618E0508658E0508698E0508E7
:100120006D8E0508718E0508758E0508798E050897
:100130007D8E0508818E0508858E0508898E050847
:100140008D8E0508918E0508958E0508998E0508F7
:100150009D8E0508A18E0508A58E0508A98E0508A7
:10016000AD8E0508B18E0508B58E0508B98E050857
:10017000BD8E0508C18E0508C58E0508000000006B
:10018000C98E0508CD8E0508AFFB9FFA9FFA8FF93F
:100190007FF87FF86FF76FF65FF64FF54FF43FF497
:1001A0003FF32FF30550000000002BB3CFFDDFFE1F
:1001B0004EE41FF600AFD1FF500AFC0FF500AFC0B0
:1001C000FF5009FB0FF4009FB0FF4009FB0FF30045
:1001D0008FA0FF3008FA01100001000000002FF08E
:1001E00000006FB00000000004FD000008F90000EE
:1001F0000000006FB00000AF700000000009F900BF
:10020000000CF50000000000BF700000EF3000009F
:100210003FFFFFFFFFFFFFFFFFF403FFFFFFFFFFB5
:10022000FFFFFFFF4002223FF322226FD222200075
:100230000002FF000006FB00000000004FD000009D
:100240008F900000000006FB00000AF8000000008C
:10025000008F900000BF60000000000AF700000D52
:10026000F40000002222CF722222FF5222003FFF20
:10027000FFFFFFFFFFFFFFF503FFFFFFFFFFFFFF94
:10028000FFFF5000001FF000005FC00000000003EF
:10029000FE000007FA00000000006FB000009F8021
:1002A0000000000008F900000BF60000000000AF9D
:1002B000700000DF40000000000000038300000029
:1002C000000000007F7000000000000007F7000041
:1002D00000000000007F7000000000005ADFFFEC0B
:1002E00083000002DFFFFFFFFFFC2002EFFFCCFCDA
:1002F000BEFFF300BFFC207F70029C001FFF1007B1
:10030000F700000003FFC0007F700000002FFD0019
:1003100007F700000000FFF7007F7000000008FFF3
:10032000FD69F7000000000AFFFFFFB500000000B4
:1003300004CFFFFFFFA30000000016CFFFFFF9006E
:1003400000000007F98EFFF9000000007F7007FF32
:10035000F100000007F7000BFF400000007F700075
:100360009FF508100007F7000DFF34FE71007F7045
:100370000AFFD08FFFFCACFBBFFFF3005DFFFFFF68
:10038000FFFFE40000049DEFFFEB600000000000B1
:100390007F7000000000000007F700000000000070
:1003A000007F7000000000000003830000000000D8
:1003B0005CFFC4000000000AFA000007FFCDFF70D8
:1003C0000000005FE000003FE3003EF2000001FF9C
:1003D0004000009F700007F900000BF9000000DFEB
:1003E000300003FC00006FD0000000EF100001FDA2
:1003F0000002FF30000000DF300003FC000CF800BA
:100400000000009F700007F9007FD0000000003F4F
:10041000E2003EF202FF200000000007FFCCFF7068
:100420000CF70059A82000005CFFC5008FC00CFF2E
:10043000FFF6000000000003FF20AFB205FF300010
:100440000000000DF601FE00006FB0000000009FEC
:10045000B006F900000FF000000004FF1008F600DD
:10046000000DF20000000EF60008F600000CF2008D
:1004700000009FB00007F700000EF1000004FE101E
:100480000003FC00003FD000001EF5000000CF403C
:1004900000BF600000AFA00000002EFA9DFA00002F
:1004A00005FE1000000002AEFD7000000005BEFE5B
:1004B000C6000000000000BFFFFFFFB0000000000A
:1004C00008FFB423AFF6000000000EFD00000DFB96
:1004D000000000000FFA00000AFC000000000FFC02
:1004E00000001EF9000000000AFF5001CFF30000D9
:1004F000000002FFF35EFF6000000000005FFFFFEE
:10050000E40000000000002DFFFB100000000000D0
:1005100006FFFFFF300000000000AFFC35FFF400D5
:1005200004C70009FF90004FFF4009FE003FFB0099
:100530000004FFF50EF9008FF50000004FFFAFF447
:1005400000AFF300000003FFFFC0008FF7000000C2
:10055000004FFF80003FFF50000004DFFFF600095E
:10056000FFFD8678DFFF8EFF70008FFFFFFFFFD457
:1005700002EFC000027CEFED9500002C100000009F
:10058000000000000000001FF61FF50FF50FF50F2B
:10059000F40FF40FF30FF301100000DFE00005FF8C
:1005A00060000DFE00004FF70000AFF20000FFD02A
:1005B0000004FF800007FF50000AFF20000DFF002D
:1005C000000FFD00000FFC00001FFC00002FFB00CF
:1005D000002FFB00001FFC00000FFC00000FFD00BF
:1005E000000DFF00000AFF200007FF500004FF80FD
:1005F0000000EFD00000AFF200004FF700000DFE4A
:10060000000005FF600000DFE00CFE000005FF7049
:100610000000DFF100006FF600001FFC00000BFF80
:10062000100006FF600003FF900000FFC00000DF25
:10063000F00000BFF10000AFF200009FF300008F58
:10064000F400009FF400009FF30000AFF20000BF31
:10065000F10000DFF00000FFC00003FF900006FF84
:1006600060000BFF10001FFC00006FF60000DFE1D0
:100670000005FF70000CFE000000000EE00000000E
:10068000000EE000000C700EE007C03FFE5EE5EFDC
:10069000F302AFFFFFFA200004FFFF5000008FFFBE
:1006A000FFF8003EFF7EE7FFE30DA10EE01AD00049
:1006B000000EE0000000000EE0000000000220003C
:1006C0000000000011000000000008FF0000000012
:1006D0000008FF000000000008FF00000000000804
:1006E000FF000000000008FF000000FFFFFFFFFF09
:1006F000FFF7FFFFFFFFFFFFF756666BFF666662BF
:10070000000008FF000000000008FF0000000000DB
:1007100008FF000000000008FF000000000008FFC4
:10072000000000014103FFE18FFF55FFF409FF00C6
:100730008FA00CF500FF004FA0002777777764FFAC
:10074000FFFFFC4FFFFFFFC0000001DFB08FFF582D
:10075000FFF41BF9000000000001FF700000000022
:100760007FF2000000000DFC0000000002FF6000AE
:100770000000008FF1000000000EFB0000000003ED
:10078000FF50000000009FF0000000000EFA000083
:10079000000004FF4000000000AFE0000000000F78
:1007A000F90000000005FF3000000000BFE000007D
:1007B00000001FF80000000006FF2000000000CF2E
:1007C000D0000000002FF70000000007FF2000000D
:1007D0000000DFC0000000003FF60000000008FF3E
:1007E0001000000000EFB0000000004FF500000016
:1007F0000009FF0000000000EFA0000000005FF40F
:10080000000000000AFE00000000000000039DFF41
:10081000D93000000000AFFFFFFFFA0000000CFF1E
:10082000FEBBEFFFC00000AFFE500005EFFA000472
:10083000FFF20000002FFF400BFF7000000007FFD9
:10084000B00FFF1000000001FFF04FFB00000000A0
:1008500000CFF46FF900000000009FF68FF7000052
:100860000000007FF88FF700000000007FF88FF78E
:1008700000000000007FF86FF900000000009FF604
:100880004FFB0000000000CFF40FFF10000000013C
:10089000FFF00BFF7000000007FFB004FFF2000044
:1008A000002FFF4000AFFE500004EFFA00000CFFE5
:1008B000FEBBEFFFC0000001AFFFFFFFFA1000001A
:1008C00000039DFFDA300000CFFFFFFFCFFFFFFFE7
:1008D00079999FFF00000FFF00000FFF00000FFF3E
:1008E00000000FFF00000FFF00000FFF00000FFFD0
:1008F00000000FFF00000FFF00000FFF00000FFFC0
:1009000000000FFF00000FFF00000FFF00000FFFAF
:1009100000000FFF00000FFF00000FFF00016BDF62
:10092000FEB600000008FFFFFFFFFE40001CFFFFB7
:10093000CBBDFFFF3003EFE5000004DFFD0002A1A7
:1009400000000002FFF20000000000000CFF400069
:100950000000000000CFF30000000000000EFF10B8
:10096000000000000006FFB0000000000002FFF3DE
:10097000000000000002EFF8000000000002EFFAA3
:10098000000000000003EFF9000000000003FFF981
:10099000000000000004FFF8000000000004FFF762
:1009A000000000000005FFF6000000000006FFF652
:1009B000000000000006FFFD999999999910EFFF3A
:1009C000FFFFFFFFFFF30EFFFFFFFFFFFFFF300EF4
:1009D000FFFFFFFFFFFFF00EFFFFFFFFFFFFF0082D
:1009E000999999999FFF9000000000008FFB0000EB
:1009F00000000005FFD100000000003FFF200000C4
:100A0000000001EFF400000000000CFF7000000087
:100A10000000AFFD100000000001FFFFFD8000009E
:100A20000001FFFFFFFD2000000011138EFFD0002A
:100A30000000000001EFF60000000000006FFB0066
:100A400000000000003FFC0000000000004FFB0819
:100A50003000000000BFF74FFA3000001AFFF19F8E
:100A6000FFFECABDFFFF5006EFFFFFFFFFE50000DE
:100A7000048CEFFDB6000000000000008FFB0000BA
:100A800000000000004FFE100000000000002EFFDC
:100A9000300000000000000CFF70000000000000AB
:100AA00009FFA000000000000005FFD000000000CA
:100AB000000002FFF200000000000000DFF500006F
:100AC0000000000000AFF9000033200000007FFCB0
:100AD00000001FFB0000003FFE200001FFB00000EF
:100AE0001EFF4000001FFB00000CFF80000001FF04
:100AF000B00008FFF99999999FFE9996DFFFFFFFD3
:100B0000FFFFFFFFFFBDFFFFFFFFFFFFFFFFFB003A
:100B10000000000003FFB0000000000000003FFBE9
:100B20000000000000000003FFB000000000000013
:100B3000003FFB0000000000000003FFB0000000C9
:100B40000EFFFFFFFFFFF00000FFFFFFFFFFFF00B2
:100B5000001FFD99999999900003FF9000000000F3
:100B600000005FF700000000000006FF50000000DA
:100B70000000008FF40000000000000AFF200000C9
:100B800000000000BFFFFFFEB82000000DFFFFFFC8
:100B9000FFFF90000089999ABDFFFFC00000000090
:100BA00000018FFF700000000000006FFE000000D9
:100BB00000000000FFF10000000000000DFF200019
:100BC0000000000000FFF00570000000006FFC0056
:100BD000EFD50000007FFF603FFFFFDBACFFFFA011
:100BE000002BFFFFFFFFFF900000027BDFFEC8200D
:100BF00000000000005ADFFFC940000004EFFFFFC3
:100C0000FFFF600008FFFFCA99CFE00006FFF91060
:100C10000000130001FFF50000000000009FF80035
:100C200000000000000EFF10000000000003FFB0F5
:100C30000000000000006FF8017CEFEC710008FF7D
:100C400075FFFFFFFFE5008FFBFFEA779EFFF508CA
:100C5000FFFFA0000009FFE07FFFC00000000BFFC6
:100C600065FFF5000000005FF91FFF300000000382
:100C7000FFA0DFF5000000005FF806FFB0000000F5
:100C80000BFF500DFFA0000009FFD0002EFFEA77F8
:100C90009EFFF300002CFFFFFFFFD3000000049D28
:100CA000FFEB6000001FFFFFFFFFFFFFFFB1FFFF33
:100CB000FFFFFFFFFFFB1FFE999999999EFF81FFA0
:100CC000C000000001FFF11FFC000000007FFA01DE
:100CD000FFC00000000EFF20055400000006FFB01A
:100CE000000000000000DFF40000000000004FFDE5
:100CF0000000000000000BFF60000000000003FF88
:100D0000E0000000000000AFF70000000000001F3E
:100D1000FF10000000000008FF900000000000002D
:100D2000FFF20000000000007FFB00000000000058
:100D30000EFF40000000000005FFD0000000000092
:100D400000CFF50000000000004FFE000000000092
:100D5000000BFF7000000000000039CEFEDA5000EA
:100D60000001BFFFFFFFFFD30000DFFFB878AFFF38
:100D7000F3007FFE3000001AFFC00CFF40000000AF
:100D80000EFF10EFF100000000BFF30CFF30000079
:100D9000000DFF107FFC10000008FFB000BFFF96A1
:100DA000458DFFE200008FFFFFFFFFB100006EFFE7
:100DB000FFFFFFFF90007FFF9310037EFFB02FFF28
:100DC000300000001DFF67FF80000000003FFCAF07
:100DD000F50000000000FFFAFF60000000001FFFA8
:100DE0007FFC0000000007FFC1FFFA10000007FFB2
:100DF000F505FFFFA7679EFFF90004DFFFFFFFFF78
:100E0000F700000059DEFEDB610000000038DEFE66
:100E1000C71000000009FFFFFFFFF7000000BFFF41
:100E2000B778CFFF800006FFD2000003DFF5000D8A
:100E3000FF200000002FFE000FFD000000000BFF50
:100E4000501FFC000000000AFF900FFF0000000090
:100E50000EFFD00BFF900000009FFFF003FFFB414F
:100E6000015CFFFFF0006FFFFFFFFFF5FFF00003E5
:100E7000BFFFFFFB30FFF000000146641001FFE000
:100E800000000000000005FFB00000000000000AA4
:100E9000FF700000000000002FFF100000000000A5
:100EA00001DFF90000050000005EFFD000007FEBCD
:100EB000A9AEFFFD200000DFFFFFFFFFA100000043
:100EC00017BEFFEC820000001BFA08FFF48FFF51F1
:100ED000DFB0000000000000000000000000000083
:100EE0000000000000001DFB08FFF58FFF41BF90D0
:100EF0001BFA08FFF48FFF51DFB000000000000074
:100F000000000000000000000000000000000BFADC
:100F100007FFF47FFF51CFF107FC00BF700FF10313
:100F2000FC00252000000000000000000000000080
:100F30000004A60000000017DFF70000004BFFFFD1
:100F4000C300028EFFFE930005BFFFFB500000EFC1
:100F5000FFD710000000FFF70000000000FFFFD6E1
:100F60001000000006CFFFFA40000000039FFFFEC4
:100F700082000000005CFFFFB30000000028EFF7D4
:100F8000000000000005B7000000000000005666E9
:100F90006666666662FFFFFFFFFFFFF7FFFFFFFF6A
:100FA000FFFFF7000000000000000000000000004C
:100FB00000000000000000000000000000000055DC
:100FC000555555555552FFFFFFFFFFFFF7FFFFFF38
:100FD000FFFFFFF700000000000000D71000000036
:100FE0000000FFFA40000000009FFFFD71000000BC
:100FF000006CFFFFB40000000028EFFFE8200000B5
:101000000004BFFFF60000000002DFF7000000034D
:10101000AFFFF6000017DFFFF930005BFFFFC500F0
:10102000008EFFFE82000000FFFB5000000000E881
:101030002000000000000000000000000000027B13
:10104000DFFEB71000008FFFFFFFFFF5001DFFFE62
:10105000A99CFFFF406FFD4000002DFFD003A000C2
:10106000000002FFF1000000000000EFF1000000AE
:10107000000000FFF0000000000008FFA0000000DA
:1010800000006FFE200000000007FFE300000000EA
:10109000008FFE200000000005FFE20000000000BD
:1010A0000DFF5000000000001FFF000000000000C6
:1010B00004430000000000000000000000000000E9
:1010C000000000000000000009C600000000000051
:1010D0007FFF2000000000007FFF300000000000C4
:1010E0001CF900000000000000038BDFFFEB840010
:1010F000000000000000006DFFFFFFFFFFFE70001A
:101100000000000003CFFE942000147CFFE50000E7
:10111000000005FFE5000000000003CFF80000001C
:1011200004FFA0000000000000006FF8000002FFB4
:101130009000000244200025505FF40000CFC00062
:10114000007DFFFFD609FF007FE0004FF20001CFD6
:10115000FFFFFFFB9FF000CF700BFA0000CFFC51A8
:10116000027EFFFF0005FD00FF40007FFA00000047
:101170001DFFF0000EF24FF0000EFE000000003FD9
:10118000FF0000BF56FC0003FF8000000000CFF00E
:101190000008F78FA0005FF50000000009FF0000C5
:1011A0007F88FA0006FF40000000008FF00007F87B
:1011B0008FA0004FF5000000000AFF00008F76FCB2
:1011C0000001FFA000000000EFF0000AF53FF00072
:1011D0000CFF200000006FFF0000EF20FF40004FD9
:1011E000FD2000005FFFF3006FD00AFA00009FFFB0
:1011F0009546BFF9FFC57FF5004FF200008FFFFF56
:10120000FFF60CFFFFFA0000BFC0000029DFFD82DF
:101210000019EFD6000002FFA0000000000000004F
:10122000000000000004FFB000000000000000000B
:101230000000000005FFE5000000000011000000B4
:1012400000000003DFFE95210136AF900000000092
:101250000000006DFFFFFFFFFFFA0000000000002C
:101260000000038BEFFFDB720000000000000000B5
:101270000000BFFA0000000000000000003FFFF285
:1012800000000000000000000AFFFF9000000000C6
:1012900000000001FFCDFF10000000000000008FE3
:1012A000F57FF7000000000000000FFE01FFE000E6
:1012B000000000000007FF7009FF60000000000050
:1012C00000EFF1002FFD0000000000005FFA0000B9
:1012D000BFF400000000000DFF300004FFC000005C
:1012E000000004FFC000000DFF3000000000BFF54B
:1012F0000000006FFA000000002FFE00000000FF59
:10130000F20000000AFFB66666666CFF90000001FE
:10131000FFFFFFFFFFFFFFFF1000008FFFFFFFFF3A
:10132000FFFFFFF700000FFF200000000003FFE0B9
:101330000007FFA000000000000CFF6000EFF300BA
:1013400000000000005FFD005FFC000000000000E6
:1013500000DFF40CFF4000000000000006FFC0DFCB
:10136000FFFFFFFFFDA600000DFFFFFFFFFFFFFED9
:101370004000DFF86666668BFFFF300DFF2000003F
:101380000001CFFB00DFF20000000002FFF00DFFC4
:1013900020000000000EFF00DFF20000000000FF50
:1013A000F00DFF20000000007FF900DFF2000000D8
:1013B00014AFFE100DFFFFFFFFFFFFFC2000DFFF5B
:1013C000FFFFFFFFFFE7000DFF866666678BFFFBF1
:1013D00000DFF20000000002DFF80DFF2000000037
:1013E0000002FFF0DFF200000000000DFF2DFF20E3
:1013F0000000000000DFF2DFF200000000002FFF1D
:101400001DFF20000000001CFFB0DFF86666667854
:10141000BFFFF20DFFFFFFFFFFFFFFD300DFFFFF66
:10142000FFFFFFDA500000000000059DFFEDA50062
:1014300000000006EFFFFFFFFFE6000001BFFFFE18
:10144000BABDFFFFA0001DFFFB30000029FFF30025
:10145000BFFF50000000003D4005FFF40000000009
:101460000000000CFF80000000000000002FFF00C3
:10147000000000000000005FFB0000000000000012
:10148000008FF800000000000000008FF70000004F
:1014900000000000008FF800000000000000005F66
:1014A000FB00000000000000002FFF000000000013
:1014B0000000000CFF800000000000000005FFF4A9
:1014C0000000000000000000BFFF50000000003DD1
:1014D00040001DFFFA30000029FFF30001BFFFFEAE
:1014E000BABDFFFFA0000006EFFFFFFFFFE6000010
:1014F000000005ADFFED950000DFFFFFFFFFEC945E
:101500000000000DFFFFFFFFFFFFFD500000DFFAAE
:1015100099999ACEFFFFA0000DFF2000000004BFA4
:10152000FFB000DFF200000000006FFF800DFF2021
:1015300000000000006FFF20DFF20000000000004C
:10154000AFF90DFF20000000000003FFE0DFF20014
:1015500000000000000EFF2DFF2000000000000032
:10156000BFF4DFF20000000000000AFF5DFF200072
:101570000000000000BFF4DFF20000000000000ED9
:10158000FF2DFF20000000000003FFE0DFF200005D
:1015900000000000AFF90DFF2000000000006FFF09
:1015A00020DFF200000000006FFF800DFF20000030
:1015B0000004BFFFB000DFFA99999ACEFFFFA000A8
:1015C0000DFFFFFFFFFFFFFD500000DFFFFFFFFFEC
:1015D000EC9400000000DFFFFFFFFFFFFFF0DFFFE4
:1015E000FFFFFFFFFFF0DFFA999999999990DFF2D9
:1015F000000000000000DFF2000000000000DFF249
:10160000000000000000DFF2000000000000DFF238
:10161000000000000000DFF2000000000000DFFF1B
:10162000FFFFFFFFFB00DFFFFFFFFFFFFB00DFF916
:10163000888888888600DFF2000000000000DFF262
:10164000000000000000DFF2000000000000DFF2F8
:10165000000000000000DFF2000000000000DFF2E8
:10166000000000000000DFFA999999999993DFFF33
:10167000FFFFFFFFFFF6DFFFFFFFFFFFFFF6DFFFCC
:10168000FFFFFFFFFFFDFFFFFFFFFFFFFFDFFA99F7
:10169000999999999DFF200000000000DFF2000059
:1016A0000000000DFF200000000000DFF20000003D
:1016B00000000DFF200000000000DFF2000000002D
:1016C000000DFF200000000000DFFFFFFFFFFFFB19
:1016D0000DFFFFFFFFFFFFB0DFFA99999999960D73
:1016E000FF200000000000DFF200000000000DFFFE
:1016F000200000000000DFF200000000000DFF20CD
:101700000000000000DFF200000000000DFF2000DC
:1017100000000000DFF200000000000000000004F4
:101720009CEFEDA61000000006EFFFFFFFFFF800A2
:101730000001BFFFFECABDFFFFD1000CFFFB300060
:101740000017EFF600AFFF60000000001B7004FF01
:10175000F4000000000000000CFF8000000000000A
:1017600000002FFF00000000000000005FFB0000F1
:101770000000000000008FF80000000000000000E2
:101780008FF70000000000002AA58FF8000000007D
:1017900000004FF95FFB0000000000004FF92FFF31
:1017A0001000000000004FF90CFF80000000000056
:1017B0004FF904FFF500000000004FF900AFFF6093
:1017C000000000004FF9000CFFFB30000005DFF9BE
:1017D0000001BFFFFEBABCFFFFF4000006EFFFFFF1
:1017E000FFFFFA10000000059DFFEDA61000DFF2DC
:1017F00000000000000CFF3DFF200000000000CFB3
:10180000F3DFF200000000000CFF3DFF20000000AD
:101810000000CFF3DFF200000000000CFF3DFF20CE
:101820000000000000CFF3DFF200000000000CFF1A
:101830003DFF200000000000CFF3DFF200000000B9
:10184000000CFF3DFFFFFFFFFFFFFFFFF3DFFFFF88
:10185000FFFFFFFFFFFF3DFFA99999999999EFF3CA
:10186000DFF200000000000CFF3DFF200000000040
:1018700000CFF3DFF200000000000CFF3DFF20006E
:1018800000000000CFF3DFF200000000000CFF3D7D
:10189000FF200000000000CFF3DFF2000000000096
:1018A0000CFF3DFF200000000000CFF3DFF200003E
:1018B0000000000CFF30DFF2DFF2DFF2DFF2DFF2D8
:1018C000DFF2DFF2DFF2DFF2DFF2DFF2DFF2DFF290
:1018D000DFF2DFF2DFF2DFF2DFF2DFF2DFF2DFF280
:1018E000002FFFFFFFFFF6002FFFFFFFFFF600199D
:1018F000999999DFF600000000008FF600000000C3
:10190000008FF600000000008FF600000000008F3E
:10191000F600000000008FF600000000008FF600C7
:10192000000000008FF600000000008FF6000000AD
:1019300000008FF600000000008FF600000000009D
:101940008FF600000000009FF60000000000BFF5C9
:1019500001B1000001FFF20CFD20000AFFD00CFFD6
:10196000FC99EFFF5001AFFFFFFFF7000004ADFF50
:10197000D92000DFF20000000001DFF70DFF20009A
:10198000000001DFF800DFF200000001DFF9000DC8
:10199000FF20000000CFFA0000DFF2000000CFFAC5
:1019A00000000DFF200000CFFB000000DFF2000070
:1019B000BFFC0000000DFF2000BFFC00000000DFA6
:1019C000F200AFFD100000000DFF20AFFF3000005F
:1019D0000000DFF2AFFFFD000000000DFFBFFFFFC2
:1019E000FA00000000DFFFFF35FFF80000000DFFE8
:1019F000FF3007FFF5000000DFFF300009FFF300B4
:101A0000000DFF4000000BFFE10000DFF2000000CE
:101A10000CFFC0000DFF200000001EFFA000DFF241
:101A2000000000002FFF700DFF20000000004FFF9E
:101A300040DFF200000000006FFF20DFF200000036
:101A400000000DFF200000000000DFF20000000099
:101A5000000DFF200000000000DFF2000000000089
:101A60000DFF200000000000DFF200000000000D6C
:101A7000FF200000000000DFF200000000000DFF6A
:101A8000200000000000DFF200000000000DFF2039
:101A90000000000000DFF200000000000DFF200049
:101AA00000000000DFF200000000000DFF20000039
:101AB000000000DFF200000000000DFF2000000029
:101AC0000000DFFA99999999995DFFFFFFFFFFFFE9
:101AD000F8DFFFFFFFFFFFFF80DFD0000000000006
:101AE000000004FF7DFF7000000000000000DFF731
:101AF000DFFF200000000000007FFF7DFFFA0000F4
:101B0000000000001FFFF7DFFFF4000000000009E5
:101B1000FFFF7DFFFFD00000000003FFFFF7DFF9AC
:101B2000FF7000000000CFF8FF7DFF1EFF100000D7
:101B3000006FF86FF7DFF05FFA0000000EFE06FF9F
:101B40007DFF00BFF3000008FF506FF7DFF002FFDA
:101B5000D00002FFB006FF7DFF0008FF6000BFF26B
:101B6000006FF7DFF0000EFF104FF80006FF7DFF5B
:101B700000005FF90DFE00006FF7DFF00000BFFA14
:101B8000FF500006FF7DFF000002FFFFC000006F56
:101B9000F7DFF0000008FFF2000006FF7DFF000005
:101BA000000EF90000006FF7DFF0000000370000C2
:101BB0000006FF7DFF00000000000000006FF7DF5F
:101BC000F00000000000000006FF70DFE1000000F0
:101BD00000000CFF3DFFC00000000000CFF3DFFF5E
:101BE00090000000000CFF3DFFFF6000000000CFF0
:101BF000F3DFFFFF300000000CFF3DFFDFFE1000B1
:101C00000000CFF3DFF3DFFC0000000CFF3DFF22FC
:101C1000FFFA000000CFF3DFF205FFF700000CFF32
:101C20003DFF2008FFF40000CFF3DFF2000BFFE2DE
:101C3000000CFF3DFF20000DFFD000CFF3DFF200CE
:101C4000002FFFA00CFF3DFF2000004FFF70CFF3DF
:101C5000DFF20000007FFF4CFF3DFF20000000AFDF
:101C6000FEEFF3DFF200000000DFFFFF3DFF20008A
:101C7000000002EFFFF3DFF20000000004FFFF3D71
:101C8000FF200000000007FFF3DFF200000000006B
:101C90000AFF30000000049CEFFDA60000000000D9
:101CA000006EFFFFFFFFFF8000000000BFFFFEBAD5
:101CB000BDFFFFD2000000CFFFA30000028FFFE2B4
:101CC0000000AFFF50000000003EFFD0004FFF407B
:101CD00000000000002FFF800CFF800000000000CB
:101CE000005FFF02FFF000000000000000DFF55F72
:101CF000FB0000000000000007FF98FF80000000CC
:101D0000000000004FFB8FF70000000000000004FF
:101D1000FFB8FF80000000000000005FFB5FFB00D9
:101D200000000000000007FF92FFF000000000002C
:101D30000000DFF50CFF800000000000005FFF00E6
:101D40004FFF4000000000002FFF8000AFFF500059
:101D50000000003EFFD00000CFFFA30000028FFF75
:101D6000E2000001BFFFFEBABDFFFFD2000000008D
:101D70006EFFFFFFFFFF800000000000059DFFFDDC
:101D8000A610000000DFFFFFFFFED9400000DFFFCC
:101D9000FFFFFFFFFD3000DFFA99999ADFFFF400A3
:101DA000DFF200000003CFFF10DFF2000000000CA4
:101DB000FF90DFF20000000003FFE0DFF200000010
:101DC0000000FFF0DFF20000000000EFF1DFF200A2
:101DD00000000000FFF0DFF20000000006FFC0DF9F
:101DE000F2000000003EFF60DFF200000149FFFC4E
:101DF00000DFFFFFFFFFFFFFC100DFFFFFFFFFFF6F
:101E0000E70000DFFA99999863000000DFF2000014
:101E10000000000000DFF200000000000000DFF220
:101E200000000000000000DFF200000000000000E1
:101E3000DFF200000000000000DFF2000000000000
:101E40000000000000049CEFFDA600000000000060
:101E500006EFFFFFFFFFF80000000000BFFFFEBA23
:101E6000BDFFFFD20000000CFFFA30000029FFFE8A
:101E7000200000AFFF50000000003EFFD00004FF34
:101E8000F4000000000002FFF7000CFF80000000DB
:101E90000000005FFE001FFF000000000000000DBA
:101EA000FF505FFB0000000000000007FF807FF88C
:101EB0000000000000000005FFB08FF700000000E8
:101EC00000000004FFB08FF80000000000000004D4
:101ED000FFB06FFA0000000000000007FF902FFF26
:101EE000000000000000000CFF500DFF700000001B
:101EF0000000004FFF0006FFF3000000000001EFAC
:101F0000F80000CFFE40000000002DFFD000001EB2
:101F1000FFF920000017FFFE30000002DFFFFDA9DF
:101F2000ACFFFFE20000000009FFFFFFFFFFF90028
:101F3000000000000017BEFFFFE6100000000000D8
:101F40000000000AFFF40000029000000000000002
:101F5000AFFF92027FF700000000000007FFFFFFC5
:101F6000FFE3000000000000003AFFFFFA1000004D
:101F700000000000000013540000DFFFFFFFFED947
:101F8000400000DFFFFFFFFFFFFD3000DFFA9999FF
:101F90009ADFFFF400DFF200000003CFFF10DFF252
:101FA000000000000CFF90DFF20000000003FFE0E3
:101FB000DFF20000000000FFF0DFF2000000000090
:101FC000EFF1DFF20000000001FFF0DFF20000009F
:101FD0000006FFC0DFF2000000003FFF60DFF200FC
:101FE000000149FFFC00DFFFFFFFFFFFFFC100DF33
:101FF000FFFFFFFFFFE60000DFF9888889FFD000C0
:1020000000DFF2000000AFF90000DFF20000000E78
:10201000FF5000DFF200000004FFE100DFF20000EB
:1020200000008FFB00DFF2000000000DFF60DFF218
:102030000000000002FFF2000038CEFFEB7200004B
:1020400002BFFFFFFFFFFB2001EFFFC989BEFFF4C6
:1020500000AFFC20000003AD001FFF1000000000D7
:102060000003FFB00000000000003FFD0000000082
:10207000000000FFF700000000000008FFFC610006
:102080000000000009FFFFFD951000000004CFFFD5
:10209000FFFFB40000000016AEFFFFFA00000000D2
:1020A00000027CFFFA00000000000006FFF20000C2
:1020B000000000000BFF500000000000009FF50929
:1020C00020000000000DFF35FF920000001AFFC045
:1020D0007FFFFEB989CFFFF3004CFFFFFFFFFFC377
:1020E0000000037BDFFED9400000EFFFFFFFFFFF92
:1020F000FFFFF7EFFFFFFFFFFFFFFFF78999999DB4
:10210000FFB99999940000000BFF40000000000007
:10211000000BFF400000000000000BFF400000002B
:102120000000000BFF400000000000000BFF40001B
:1021300000000000000BFF400000000000000BFF4B
:10214000400000000000000BFF4000000000000005
:102150000BFF400000000000000BFF4000000000EB
:1021600000000BFF400000000000000BFF400000DB
:10217000000000000BFF400000000000000BFF40CB
:102180000000000000000BFF400000000000000BFA
:10219000FF400000000000000BFF400000000000B6
:1021A000000BFF400000000FFF000000000003FFD5
:1021B000B0FFF000000000003FFB0FFF0000000038
:1021C0000003FFB0FFF000000000003FFB0FFF0026
:1021D0000000000003FFB0FFF000000000003FFB24
:1021E0000FFF000000000003FFB0FFF00000000040
:1021F000003FFB0FFF000000000003FFB0FFF000F6
:10220000000000003FFB0FFF000000000003FFB0D4
:10221000FFF000000000003FFB0FFF000000000087
:1022200003FFA0EFF100000000005FF90BFF50007A
:1022300000000008FF707FFB0000000000EFF301CA
:10224000FFF5000000009FFC0008FFF7000002AF50
:10225000FF40000BFFFFCABDFFFF70000008FFFF3B
:10226000FFFFFE50000000028CEFFEA60000000CF5
:10227000FF600000000000000DFF205FFD00000077
:1022800000000004FFB000EFF4000000000000BFF9
:10229000F40007FFB000000000002FFD00001FFF4A
:1022A000200000000009FF6000009FF9000000000E
:1022B00001FFE0000002FFF1000000007FF80000D5
:1022C000000BFF700000000EFF100000004FFE002A
:1022D000000005FFA000000000DFF5000000CFF3C4
:1022E0000000000006FFC000004FFC0000000000DE
:1022F0000EFF30000BFF5000000000008FFA0002BC
:10230000FFE0000000000001FFF2009FF700000066
:102310000000000AFF801FFF100000000000003FC7
:10232000FF07FF9000000000000000CFF7EFF20071
:1023300000000000000005FFFFFB0000000000009F
:1023400000000EFFFF4000000000000000007FFFC3
:10235000D0000000000000000001FFF600000000B7
:10236000000EFF300000000008FF800000000003A6
:10237000FFA08FF80000000000EFFE00000000004A
:102380008FF403FFD0000000003FFFF300000000C7
:102390000DFF000DFF3000000009FFFF900000005E
:1023A00003FFA0008FF800000000EFDFFE00000038
:1023B000008FF40003FFD00000004FF7AFF30000E0
:1023C000000EFF00000DFF3000000AFF24FF900008
:1023D0000003FFA000008FF8000000FFC00EFE0009
:1023E00000008FF4000003FFD000005FF7009FF4AF
:1023F00000000EFF0000000DFF30000AFF1004FF78
:10240000900003FFA00000008FF80000FFC0000E46
:10241000FE00009FF400000003FFD0005FF6000004
:102420009FF4000EFF000000000DFF300BFF1000B6
:1024300004FF9003FFA0000000008FF801FFC00020
:10244000000EFE009FF40000000003FFD06FF600B6
:1024500000009FF40EFF00000000000DFF3BFF1086
:10246000000003FFA4FFA000000000008FFAFFB0EF
:102470000000000EFE9FF4000000000003FFFFF6C6
:10248000000000008FFFFF0000000000000DFFFFB4
:102490001000000003FFFFA00000000000008FFFFD
:1024A000B0000000000DFFF400000000000002FF7B
:1024B000F500000000008FFF000000000CFFA000EE
:1024C00000000006FFD001EFF6000000002FFF30F3
:1024D000005FFF20000000CFF6000009FFD00000E1
:1024E00008FFB0000000DFF900004FFE1000000000
:1024F0002FFF4001EFF40000000006FFE10BFF801A
:102500000000000000BFFB6FFC0000000000001E88
:10251000FFFFE100000000000004FFFF500000008A
:1025200000000000EFFF200000000000000AFFFF95
:10253000C00000000000006FFDCFF90000000000A7
:1025400002FFF32FFF40000000000DFF7006FFE1C7
:10255000000000009FFC0000AFFC00000005FFF140
:1025600000000DFF8000001EFF50000003FFF3007D
:1025700000CFFA000000007FFE1008FFD00000002E
:10258000000BFFB04FFF300000000001EFF60CFF22
:102590006000000000000BFF303FFE100000000054
:1025A00005FF90009FF90000000000EFE10001EF3F
:1025B000F3000000009FF6000006FFC00000003F8F
:1025C000FC0000000CFF6000000CFF300000002F3A
:1025D000FF100006FF90000000008FFA0001EFE1FD
:1025E0000000000000EFF400AFF50000000000055F
:1025F000FFD03FFC0000000000000BFF7DFF20002B
:1026000000000000002FFFFF80000000000000001D
:102610008FFFE00000000000000000EFF500000068
:1026200000000000000CFF3000000000000000006F
:10263000CFF300000000000000000CFF300000009D
:102640000000000000CFF300000000000000000CBC
:10265000FF300000000000000000CFF30000000089
:10266000000000000CFF30000000008FFFFFFFFFA4
:10267000FFFFFFF78FFFFFFFFFFFFFFFF74999996C
:102680009999999DFFE20000000000004FFF400073
:102690000000000002EFF70000000000000DFFA0A6
:1026A000000000000000AFFD00000000000007FF78
:1026B000E20000000000004FFF40000000000002A8
:1026C000FFF70000000000000DFFA0000000000068
:1026D00000BFFC00000000000008FFE10000000057
:1026E00000005FFF40000000000002FFF600000055
:1026F0000000001DFFA0000000000000BFFC000063
:102700000000000008FFE10000000000005FFFC9BA
:10271000999999999998BFFFFFFFFFFFFFFFFDBFB0
:10272000FFFFFFFFFFFFFFFDDFFFFF6DFFFFF6DF96
:10273000F6552DFF0000DFF0000DFF0000DFF00078
:102740000DFF0000DFF0000DFF0000DFF0000DFFC7
:102750000000DFF0000DFF0000DFF0000DFF0000C3
:10276000DFF0000DFF0000DFF0000DFF0000DFF0E4
:10277000000DFF0000DFF0000DFF0000DFF0000D96
:10278000FF6552DFFFFF6DFFFFF60EFA000000004D
:102790000009FF000000000004FF500000000000DE
:1027A000EFB000000000008FF100000000003FF6D5
:1027B00000000000000DFC000000000007FF2000EA
:1027C00000000002FF700000000000CFD0000000F9
:1027D00000006FF200000000001FF8000000000081
:1027E0000BFE000000000005FF300000000000FFAD
:1027F000900000000000AFE000000000004FF40077
:10280000000000000EFA000000000009FF000000B8
:10281000000003FF500000000000EFB000000000C7
:10282000008FF100000000002FF600000000000DF6
:10283000FC000000000007FF200000000002FF7005
:102840000000000000CFD000000000006FF37FFF09
:10285000FFD7FFFFFD2556FFD0000FFD0000FFD082
:10286000000FFD0000FFD0000FFD0000FFD0000FA3
:10287000FD0000FFD0000FFD0000FFD0000FFD00A5
:1028800000FFD0000FFD0000FFD0000FFD0000FF93
:10289000D0000FFD0000FFD0000FFD0000FFD000B2
:1028A0000FFD0000FFD2556FFD7FFFFFD7FFFFFD3B
:1028B0000000048700000000000DFF600000000021
:1028C0004FFFC000000000BF8FF300000002FF199F
:1028D000FA00000009FA02FF1000000FF400BF70B8
:1028E00000006FD0005FE00000DF60000EF5000424
:1028F000FF000008FC000BF9000001FF202FF20090
:102900000000AF908FC00000004FF1DDDDDDDDDDA8
:10291000DDDDDFFFFFFFFFFFFFFF1CFFA000000961
:10292000FFA0000005FFB0000003EFB000049DEF22
:10293000EC8200005EFFFFFFFFF6000CFFEA889EBE
:10294000FFF4003E5000000AFFC000000000000E2F
:10295000FF100000000000AFF4000000011119FF9B
:1029600050029DFFFFFFFFF504FFFFFFFFFFFF5138
:10297000FFF82000008FF56FF900000008FF57FFF7
:1029800060000000BFF55FFA0000007FFF50EFF924
:102990003114AFFFF503EFFFFFFFD8FF50018CFFAD
:1029A000EC706FF54FF9000000000000004FF900D7
:1029B0000000000000004FF9000000000000004F80
:1029C000F9000000000000004FF9000000000000C6
:1029D000004FF9000000000000004FF9018CEFEA01
:1029E0005000004FF95FFFFFFFFC20004FFDFFFB91
:1029F00099CFFFF2004FFFFB100002CFFD004FFF09
:102A0000B00000000DFF704FFF2000000004FFD059
:102A10004FFC0000000000EFF14FFA000000000042
:102A2000CFF24FFA0000000000CFF24FFC00000090
:102A30000000EFF14FFF2000000004FFD04FFFB077
:102A40000000000DFF704FFFFB100002CFFD004F94
:102A5000FCFFFB89BFFFF2004FF75FFFFFFFFD2088
:102A6000004FF7018CFFDA400000000017CEFEC7D0
:102A700010000006FFFFFFFFF600008FFFEA89DF6E
:102A8000FF7005FFF7000005FFC00EFF50000000BB
:102A900046005FFB0000000000009FF50000000002
:102AA0000000BFF3000000000000BFF300000000C2
:102AB00000009FF50000000000005FFB0000000028
:102AC00000000EFF50000000460005FFF600000564
:102AD000FFC0008FFFEA89DFFF700005FFFFFFFFE7
:102AE000F600000017CEFEC8200000000000000025
:102AF00002FFB00000000000002FFB0000000000FB
:102B00000002FFB00000000000002FFB00000000EA
:102B1000000002FFB00000000000002FFB000028B2
:102B2000DFFEA402FFB0007FFFFFFFFB3FFB00AF13
:102B3000FFEA8AEFFDFFB07FFF7000006FFFFB1F11
:102B4000FF500000004FFFB6FFB000000000BFFBC9
:102B50009FF60000000005FFBBFF30000000003FB3
:102B6000FBBFF30000000002FFB9FF5000000000AF
:102B70004FFB6FFA000000000AFFB1FFF4000000F5
:102B800003FFFB07FFE4000003EFFFB00AFFFB7544
:102B90007BFFDFFB0008FFFFFFFFC2FFB000028CDE
:102BA000EFEA500FFB000028DFFEB5000000007FB9
:102BB000FFFFFFFC100000AFFFB779EFFE20006FB2
:102BC000FD2000008FFC000FFF100000009FF505A6
:102BD000FF8000000001FFB09FF4111111111CFED5
:102BE0000BFFFFFFFFFFFFFFF0BFFFFFFFFFFFFF38
:102BF000FF19FF400000000000005FF90000000026
:102C0000000000EFF300000000200006FFF60000C7
:102C1000008F400009FFFEA88BFFFD000006FFFFAC
:102C2000FFFFFB100000017BEFFD9400000000059A
:102C3000BEFD920000AFFFFFF60005FFF868C00080
:102C40000BFF400000000DFF000000000DFF000022
:102C5000008FFFFFFFFF908FFFFFFFFF90366EFF9B
:102C6000666630000DFF000000000DFF0000000050
:102C70000DFF000000000DFF000000000DFF000030
:102C800000000DFF000000000DFF000000000DFF20
:102C9000000000000DFF000000000DFF000000001C
:102CA0000DFF000000000DFF000000000DFF000000
:102CB00000000028CEFEB500CFF0008FFFFFFFFD23
:102CC0002CFF00BFFFEA89CFFEEFF08FFF6000000E
:102CD0003DFFFF1FFF400000001DFFF6FFA00000AA
:102CE00000005FFFAFF50000000000FFFBFF3000B9
:102CF0000000000EFFBFF40000000000FFF8FF70AE
:102D0000000000003FFF4FFE000000000AFFF0DF60
:102D1000FB00000007FFFF02FFFD62014BFFFFF019
:102D200004EFFFFFFFFF9FFE0001AFFFFFFE50FF1C
:102D3000E00000046763000FFD00000000000004D5
:102D4000FFA0040000000000BFF502FD50000001DC
:102D5000AFFE00AFFFFB989BFFFF40009FFFFFFF10
:102D6000FFFE40000016ADEFFDA600004FF9000089
:102D7000000000004FF90000000000004FF90000C3
:102D8000000000004FF90000000000004FF90000B3
:102D9000000000004FF90000000000004FF9028D14
:102DA000EFEA40004FF97FFFFFFFFA004FFEFFEA16
:102DB0009AEFFF904FFFF8000007FFF24FFF8000EF
:102DC0000000AFF84FFF000000004FFB4FFB00007A
:102DD00000001FFC4FFA000000001FFD4FF900002B
:102DE00000001FFD4FF9000000001FFD4FF900001B
:102DF00000001FFD4FF9000000001FFD4FF900000B
:102E000000001FFD4FF9000000001FFD4FF90000FA
:102E100000001FFD4FF9000000001FFD2DE70BFF14
:102E2000F09FFE019A3000000000004FF904FF906F
:102E30004FF904FF904FF904FF904FF904FF904FB2
:102E4000F904FF904FF904FF904FF904FF904FF9F8
:102E500004FF90000001CF90000008FFF30000077E
:102E6000FFF10000008A40000000000000000000A8
:102E700000000002FFC0000002FFC0000002FFC00F
:102E8000000002FFC0000002FFC0000002FFC000FF
:102E90000002FFC0000002FFC0000002FFC00000EF
:102EA00002FFC0000002FFC0000002FFC0000002DD
:102EB000FFC0000002FFC0000002FFC0000002FFD0
:102EC000C0000002FFC0000003FFB0000008FF8048
:102ED0001E97AFFF208FFFFFF7003ADFFB40004F48
:102EE000F900000000000004FF9000000000000056
:102EF0004FF900000000000004FF900000000000F7
:102F0000004FF900000000000004FF9000000000E6
:102F100000004FF900000004FFF404FF90000005DA
:102F2000FFF4004FF9000007FFF40004FF900008D1
:102F3000FFF400004FF90009FFF3000004FF900ABE
:102F4000FFF30000004FF90BFFF400000004FFBC8A
:102F5000FFFFB00000004FFFFFDFFF80000004FF15
:102F6000FFD15FFF5000004FFFC0008FFF20000423
:102F7000FFC00000BFFD00004FF9000001DFFA00B4
:102F800004FF90000002FFF7004FF900000005FF6A
:102F9000F404FF9000000008FFE14FF94FF94FF9EA
:102FA0004FF94FF94FF94FF94FF94FF94FF94FF9E1
:102FB0004FF94FF94FF94FF94FF94FF94FF94FF9D1
:102FC0004FF94FF94FF94FF7039DFFD8200006BE88
:102FD000FEC700004FF79FFFFFFFF604EFFFFFFF64
:102FE000E2004FFEFFC878EFFF8FFFA779FFFE10CA
:102FF0004FFFF500000BFFFFD200001DFF804FFFC9
:1030000060000001FFFF20000004FFD04FFE000021
:103010000000BFFB00000000EFF04FFB00000000CD
:103020008FF700000000CFF14FFA000000008FF68C
:1030300000000000CFF24FF9000000008FF6000002
:103040000000CFF24FF9000000008FF600000000F2
:10305000CFF24FF9000000008FF600000000CFF221
:103060004FF9000000008FF600000000CFF24FF98A
:10307000000000008FF600000000CFF24FF90000C2
:1030800000008FF600000000CFF24FF900000000B2
:103090008FF600000000CFF24FF9000000008FF61D
:1030A00000000000CFF24FF7039DEFEA40004FF71A
:1030B0009FFFFFFFFA004FFEFFD877CFFF904FFF33
:1030C000F6000005FFF24FFF700000009FF84FFE72
:1030D000000000003FFB4FFB000000001FFC4FFA08
:1030E000000000001FFD4FF9000000001FFD4FF918
:1030F000000000001FFD4FF9000000001FFD4FF908
:10310000000000001FFD4FF9000000001FFD4FF9F7
:10311000000000001FFD4FF9000000001FFD4FF9E7
:10312000000000001FFD000017CEFFC810000000C7
:103130006FFFFFFFFF7000009FFFEA8AEFFFA00014
:103140006FFF6000006FFF600EFF500000004FFF38
:1031500015FFB000000000AFF69FF500000000056D
:10316000FFABFF30000000002FFCBFF300000000A9
:1031700002FFC9FF60000000005FFA5FFB00000073
:10318000000AFF60EFF500000004FFF105FFF60004
:103190000005FFF60009FFFE989DFFF9000006FFFD
:1031A000FFFFFFF7000000017CEFFC8100004FF7FC
:1031B000028DEFEA5000004FF77FFFFFFFFC200079
:1031C0004FFDFFE9679FFFF2004FFFF9000001BFCD
:1031D000FD004FFFA00000000CFF704FFF1000002B
:1031E0000003FFD04FFC0000000000EFF14FFA0099
:1031F00000000000CFF24FFA0000000000CFF24FB5
:10320000FC0000000000EFF14FFF2000000004FF71
:10321000D04FFFB00000000DFF704FFFFB10000209
:10322000DFFD004FFDFFFB89BFFFF2004FF95EFF9E
:10323000FFFFFD20004FF9018CEFDA4000004FF94D
:10324000000000000000004FF90000000000000036
:103250004FF9000000000000004FF90000000000DE
:1032600000004FF9000000000000004FF9000000CE
:1032700000000000000028DFFEA400FFB0007FFF78
:10328000FFFFFB1FFB00AFFFEA8AEFFCFFB07FFFF1
:103290006000006FFFFB1FFF500000005FFFB6FFE4
:1032A000B000000000BFFB9FF50000000005FFBB61
:1032B000FF30000000002FFBBFF30000000002FF02
:1032C000B9FF60000000005FFB6FFB000000000A18
:1032D000FFB1FFF500000004FFFB07FFF60000064A
:1032E000FFFFB00AFFFE989DFFDFFB0008FFFFFF16
:1032F000FFA3FFB000028CEFEA402FFB00000000AC
:10330000000002FFB00000000000002FFB000000E2
:1033100000000002FFB00000000000002FFB0000D2
:103320000000000002FFB00000000000002FFB4F73
:10333000F7028DE44FF76FFFF44FFCFFFDC34FFF23
:10334000FB20004FFFA000004FFF1000004FFC00CB
:1033500000004FFA0000004FF90000004FF9000094
:10336000004FF90000004FF90000004FF900000085
:103370004FF90000004FF90000004FF90000000075
:10338000017BEFFEB7200004EFFFFFFFFF6002FFAD
:10339000FD9779DFF1009FF900000035000BFF2059
:1033A0000000000000AFF6000000000005FFFB6316
:1033B0000000000009FFFFFFC940000003AEFFFF4F
:1033C000FFB10000000147BFFFA000000000002F78
:1033D000FF000000000000CFF106C40000003FFF26
:1033E00000EFFEA878BFFF800AFFFFFFFFFF9000FD
:1033F000017BDFFEC93000000688000000000DFFE1
:10340000000000000DFF000000000DFF0000008F15
:10341000FFFFFFFF908FFFFFFFFF90366EFF666696
:1034200030000DFF000000000DFF000000000DFF48
:10343000000000000DFF000000000DFF0000000074
:103440000DFF000000000DFF000000000DFF000058
:1034500000000DFF100000000AFF7000000005FFD3
:10346000FA79E10000AFFFFFF7000006CFFD816FA2
:10347000F7000000005FF86FF7000000005FF86FD2
:10348000F7000000005FF86FF7000000005FF86FC2
:10349000F7000000005FF86FF7000000005FF86FB2
:1034A000F7000000005FF86FF7000000005FF86FA2
:1034B000F7000000005FF86FF7000000007FF85F82
:1034C000FA00000000AFF81FFE00000002FFF80C39
:1034D000FFA000002DFFF803FFFE867AFFEFF80043
:1034E0005FFFFFFFFC4FF800018CFFEB503FF80D32
:1034F000FF20000000003FF906FF9000000000AF31
:10350000F200EFF000000001FFB0008FF6000000B5
:1035100008FF40001FFD0000000EFD00000AFF40F4
:1035200000006FF6000003FFB00000DFE0000000C5
:10353000CFF20004FF800000005FF8000BFF1000D6
:1035400000000EFF002FFA0000000007FF609FF34D
:103550000000000001FFD1FFC000000000009FFB41
:10356000FF5000000000002FFFFE000000000000E0
:103570000BFFF700000000000005FFF1000000AFA6
:10358000F100000000DFE000000000FF94FF700089
:1035900000003FFF500000005FF30EFC0000000938
:1035A000FFFA0000000BFD008FF2000000FFFFF1AA
:1035B000000001FF7002FF8000005FF8FF60000064
:1035C0007FF2000CFE00000BFD0DFC00000DFB0067
:1035D000006FF40002FF708FF20003FF600001FF34
:1035E000A0008FF102FF80009FF000000AFF000D95
:1035F000FB000BFE000EFA0000004FF504FF500028
:103600005FF405FF40000000EFB0AFE00000FF9066
:10361000AFE000000009FF2FF9000009FF1FF800CC
:103620000000003FFCFF2000003FFCFF20000000E6
:1036300000DFFFC0000000DFFFC00000000007FF48
:10364000F600000007FFF600000000001FFF10005A
:1036500000001FFF1000000DFF50000000BFF6002B
:103660002FFF2000007FFA00005FFC00003FFD00FC
:1036700000009FF9001EFF20000000DFF50BFF5047
:1036800000000002FFF9FF900000000005FFFFC0EE
:10369000000000000009FFF1000000000000CFFF63
:1036A0005000000000009FFFFF20000000005FFCB2
:1036B0004FFD000000002FFE108FFA0000000DFFEC
:1036C0004000BFF600000AFF800001EFF30006FF94
:1036D000C0000004FFE103FFE100000008FFB00D9F
:1036E000FF20000000003FF906FF9000000000AF3F
:1036F000F200EFF100000001FFB0008FF7000000C2
:1037000008FF40001FFD0000000EFD00000AFF50F2
:1037100000006FF6000003FFC00000CFE0000000D3
:10372000CFF20003FF800000005FF9000AFF1000E5
:1037300000000DFF101FFA0000000007FF708FF35C
:103740000000000000FFE0EFC000000000009FFB51
:10375000FF5000000000002FFFFD000000000000EF
:103760000BFFF600000000000003FFF00000000067
:10377000000004FF800000000000000CFF2000009B
:10378000000400006FFA000000001FE97AFFF1005A
:103790000000006FFFFFFF400000000005BEFD922B
:1037A0000000000000AFFFFFFFFFFFF4AFFFFFFFCF
:1037B000FFFFF4366666666CFFC0000000004FFE37
:1037C0001000000002FFF3000000000DFF60000089
:1037D0000000BFF90000000007FFC0000000004F1C
:1037E000FE1000000002FFF3000000000DFF60006B
:1037F000000000AFF90000000007FFC0000000005B
:103800004FFF7555555552CFFFFFFFFFFFF8CFFF14
:10381000FFFFFFFFF8000019EFF0001EFFFF000997
:10382000FFE75000CFF400000EFF000000EFF000B3
:10383000000EFF000000EFF000000EFF000000EFA0
:10384000F000000EFF000000EFF000004FFD00044C
:10385000FFFF50004FFFC200016AFFC000000FFFD2
:10386000000000EFF000000EFF000000EFF000008D
:103870000EFF000000EFF000000EFF000000EFF070
:1038800000000DFF3000009FFE750002EFFFF0000A
:1038900002AEFFDFDDFDDFDDFDDFDDFDDFDDFDDFB6
:1038A000DDFDDFDDFDDFDDFDDFDDFDDFDDFDDFDD9E
:1038B000FDDFDDFDDFDDFDDFDDFDDFDDFD7FFC604C
:1038C0000007FFFF900026AFFF200000BFF50000BB
:1038D00007FF7000007FF7000007FF7000007FF710
:1038E000000007FF7000007FF7000007FF70000076
:1038F0006FF7000004FFC000000CFFFC00007FFF1A
:10390000C0003FFE740006FF8000007FF700000744
:10391000FF7000007FF7000007FF7000007FF700D6
:103920000007FF7000007FF700000BFF60026AFFD6
:10393000F2007FFFF90007FFC60000004CFE800088
:10394000003FA04FFFFFD20007F80DFC46EFF60442
:10395000EF41FF0001AFFFFFB03FB000005CFE9001
:10396000000003786100001BFFFFF6000BF8204DFC
:10397000F504F800001ED09F2000009F29F10000F0
:1039800008F27F500000CF01FE20008F9004FFCA94
:10399000EFC00002AEFD7000002640005FFFB00DDA
:1039A000FFFF40FFFFF50AFFFF101AFD4000000077
:1039B0000000000000000000000000000000000007
:1039C00000000000000000000027CFF4000000000D
:1039D0000000000000000049EFFFFFC000000000F1
:1039E00000000000026BFFFFFFFFFD000000000071
:1039F0000000038DFFFFFFFFFFFFD000000000006D
:103A000015AEFFFFFFFFFFFFFFFD0000000007CF27
:103A1000FFFFFFFFFFFFFFFFFFD000000008FFFFD9
:103A2000FFFFFFFFFFFFFFFFFD00000000AFFFFFF4
:103A3000FFFFFFFFFFFFFFFFD00000000AFFFFFFB7
:103A4000FFFFFFFFFC72EFFD00000000AFFFFFFF74
:103A5000FFFFEA51000EFFD00000000AFFFFFFFF4A
:103A6000C830000000EFFD00000000AFFFFFA6100F
:103A7000000000000EFFD00000000AFFF50000006B
:103A800000000000EFFD00000000AFFF100000008C
:103A90000000000EFFD00000000AFFF1000000004F
:103AA000000000EFFD00000000AFFF10000000006C
:103AB00000000EFFD00000000AFFF100000000002F
:103AC0000000EFFD00000000AFFF1000000000004C
:103AD000000EFFD00000000AFFF1000000000035DA
:103AE00053EFFD00000000AFFF1000000007EFFFE4
:103AF000FFFFD00000000AFFF10000000AFFFFFFF7
:103B0000FFFD00000000AFFF10000004FFFFFFFFFB
:103B1000FFD00016998CFFF10000006FFFFFFFFF40
:103B2000FC008FFFFFFFFF10000002FFFFFFFFFF01
:103B3000809FFFFFFFFFF100000006FFFFFFFFC0B7
:103B40001FFFFFFFFFFF1000000003AEFFFC60013E
:103B5000FFFFFFFFFFF00000000000011000000C5D
:103B6000FFFFFFFFFA000000000000000000001C43
:103B7000FFFFFFFB00000000000000000000000449
:103B8000ACDC9400000000000000000000002600F3
:103B900001888888888888888888400062EE0004C8
:103BA000FFFFFFFFFFFFFFFFFF8000EEFFBAADFF4B
:103BB000FFFFFFFFFFFFFFFFEAAAFFFFFFFFFFD5A9
:103BC00055555555555AFFFFFFFFFF5448FF9000CC
:103BD0000000000004FFB444FFFE0003FF9000005B
:103BE00000000004FF8000EFFE0003FF90000000D3
:103BF000000004FF8000EFFF1005FF9000000000B0
:103C00000004FFA000FFFFFFFFFF90000000000086
:103C100004FFFFFFFFFFEEEFFF9000000000000534
:103C2000FFFEEEFFFE0004FFFAAAAAAAAAAAADFFB1
:103C30009000EFFE0003FFFFFFFFFFFFFFFFFF808D
:103C400000EFFE0003FFFFFFFFFFFFFFFFFF80000D
:103C5000EFFF766AFFC2222222222228FFC666FFD9
:103C6000FFFFFFFF90000000000004FFFFFFFFFFC9
:103C7000988BFF90000000000004FFD888FFFE0032
:103C800003FF90000000000004FF8000EFFE00032F
:103C9000FF90000000000004FF8000EFFE0004FF22
:103CA00090000000000004FF8000EFFFCCCEFF90EA
:103CB000000000000005FFFCCCFFFFFFFFFFFDDD63
:103CC000DDDDDDDDDFFFFFFFFFFF3227FFFFFFFF51
:103CD000FFFFFFFFFFB222FF9D0003FFFFFFFFFF7B
:103CE000FFFFFFFF8000D92677777600047777778C
:103CF000777777777762EFFFFFFF904FFFFFFFFF48
:103D0000FFFFFFFFFEFFFFFFFFB06FFFFFFFFFFFA3
:103D1000FFFFFFFFFFFFFFFFB06FFFFFFFFFFFFF92
:103D2000FFFFFFFFFFFFFFB06FFFFFFFFFFFFFFF82
:103D3000FFFFFFFFFFFFB06FFFFFFFFFFFFFFFFF72
:103D4000FFFFFFFFFFB06FFFFFFFFFFFFFFFFFFF62
:103D50009FFFFFFF501EFFFFFFFFFFFFFFFFF90068
:103D60000000000000000000000000000000000053
:103D7000000000000000000000000000009FFFFFA6
:103D8000FF501DFFFFFFFFFFFFFFFFF9FFFFFFFFDA
:103D9000B06FFFFFFFFFFFFFFFFFFFFFFFFFFFB061
:103DA0006FFFFFFFFFFFFFFFFFFFFFFFFFFFB06F92
:103DB000FFFFFFFFFFFFFFFFFFFFFFFFFFB06FFFF2
:103DC000FFFFFFFFFFFFFFFFFFFFFFFFB06FFFFFE2
:103DD000FFFFFFFFFFFFFFEFFFFFFF904FFFFFFF22
:103DE000FFFFFFFFFFFE27888887100588888888E7
:103DF0008888888872000000000000000000000031
:103E0000000000003888888710068888888888889D
:103E1000888883EFFFFFFFA04FFFFFFFFFFFFFFF3B
:103E2000FFFEFFFFFFFFB06FFFFFFFFFFFFFFFFF82
:103E3000FFFFFFFFFFB06FFFFFFFFFFFFFFFFFFF71
:103E4000FFFFFFFFB06FFFFFFFFFFFFFFFFFFFFF61
:103E5000FFFFFFB06FFFFFFFFFFFFFFFFFFFFFFF51
:103E6000FFFFB05FFFFFFFFFFFFFFFFFFF8FFFFFC1
:103E7000FE401CFFFFFFFFFFFFFFFFF800000000F8
:103E800000000000000000000260000000000000D0
:103E9000000000000000003FFD10000000000000D6
:103EA000000000000003FFFFD10000000000000040
:103EB000000000003FFFFFFC0000000000000000C9
:103EC000000003FFFFFFFE000000000000000000F4
:103ED000003FFFFFFFF500000000000000000003AE
:103EE000FFFFFFFF500000000000000000003FFF48
:103EF000FFFFF500006E90000000000003FFFFFFD1
:103F0000FF500006FFFA00000000003FFFFFFFF532
:103F100000006FFFFFA000000003FFFFFFFF500045
:103F200000FFFFFFFA0000003FFFFFFFF500000069
:103F3000BFFFFFFFA00003FFFFFFFF500000000CCA
:103F4000FFFFFFFA003FFFFFFFF50000000000CF7A
:103F5000FFFFFFA3FFFFFFFF5000000000000CFF6A
:103F6000FFFFFFFFFFFFF500000000000000CFFF94
:103F7000FFFFFFFFFF50000000000000000CFFFFEC
:103F8000FFFFFFF5000000000000000000CFFFFF72
:103F9000FFFF500000000000000000000CFFFFFFCA
:103FA000F50000000000000000000000BFFFFF401F
:103FB00000000000000000000000000BFFF4000003
:103FC0000000000000000000000000AD4000000004
:103FD0000000000000006710000000000038300002
:103FE000BFFD10000000005FFF509FFFFD100000AC
:103FF000005FFFFF3FFFFFFD1000005FFFFFF9BF05
:10400000FFFFFD10005FFFFFFF51CFFFFFFD105FBF
:10401000FFFFFF7001CFFFFFFD7FFFFFFF7000017B
:10402000CFFFFFFFFFFFFF70000001CFFFFFFFFF8B
:10403000FF7000000001CFFFFFFFFF7000000000D5
:1040400001DFFFFFFF8000000000005FFFFFFFFDBA
:1040500010000000005FFFFFFFFFFD100000005F89
:10406000FFFFFFFFFFFD1000005FFFFFFFEFFFFFFF
:10407000FD10005FFFFFFF71CFFFFFFD105FFFFF2F
:10408000FF7001CFFFFFFD1EFFFFFF700001CFFF9C
:10409000FFF8DFFFFF70000001CFFFFF73FFFF702D
:1040A00000000001CFFFC004EF700000000001BF5E
:1040B000B000000000000000000000000000000050
:1040C00000000022100000000000000000000000BE
:1040D000000DFFF4000000000000000000000000E0
:1040E0001FFFF80000000000000000002610002F55
:1040F000FFF9000045000000000005FFC0002FFF91
:10410000F90005FFB1000000006FFFF5002FFFF977
:10411000000DFFFC00000004FFFFFA002FFFF90074
:104120003FFFFFB000001EFFFFF4002FFFF9000D5E
:10413000FFFFF70000AFFFFF40002FFFF90001CFA6
:10414000FFFF1002FFFFF500002FFFF900000DFF39
:10415000FF9008FFFFA000002FFFF9000003FFFF02
:10416000F10EFFFF1000002FFFF9000000AFFFF578
:104170002FFFFB0000002FFFF90000003FFFF95F59
:10418000FFF60000002FFFF90000000FFFFC7FFF8B
:10419000F30000002FFFF90000000CFFFE8FFFF27C
:1041A0000000002FFFF90000000BFFFF7FFFF3006E
:1041B00000001FFFF80000000CFFFE6FFFF500007D
:1041C0000006BBA10000000EFFFD3FFFFA0000004B
:1041D0000000000000003FFFFB0FFFFE000000009A
:1041E00000000000008FFFF70AFFFF8000000000C2
:1041F00000000001FFFFF204FFFFF30000000000D9
:1042000000000BFFFFB000CFFFFE20000000000009
:1042100000AFFFFF30002FFFFFF400000000001B85
:10422000FFFFFA000007FFFFFFB300000017FFFFCA
:10423000FFD00000009FFFFFFFEB99ADFFFFFFFEE7
:104240001000000008FFFFFFFFFFFFFFFFFFD2008D
:10425000000000005EFFFFFFFFFFFFFFFA0000000D
:10426000000000018FFFFFFFFFFFFC400000000087
:10427000000000005AEFFFFFC830000000000000FF
:10428000000000000012100000000000000000000C
:10429000000000000000000000000000000000001E
:1042A00000038BCCB83000000000000000000000CC
:1042B0000BFFFFFFC0000000000000000000000B2B
:1042C000FFFFFFC0000000000000000000000BFF27
:1042D000FFFFC0000000000000002100018FFFFF71
:1042E000FFF810001200000002FF706FFFFFFFFFD9
:1042F000FFF607FF3000000DFFFFFFFFFFFFFFFF8E
:10430000FFFFFFE000008FFFFFFFFFFFFFFFFFFF4A
:10431000FFFFF90001FFFFFFFFFFFFFFFFFFFFFFB0
:10432000FFFF2008FFFFFFFFFFFFFFFFFFFFFFFF73
:10433000FF800DFFFFFFFFFFC5115CFFFFFFFFFFC9
:10434000D003DFFFFFFFFA000000AFFFFFFFFD30EB
:104350000007FFFFFFE00000000DFFFFFF700000FF
:1043600002FFFFFF8000000007FFFFFF20000003A7
:10437000FFFFFF5000000005FFFFFF30000002FFBD
:10438000FFFF6000000006FFFFFF30000002FFFF9C
:10439000FFA00000000AFFFFFF2000005EFFFFFFFC
:1043A000F40000003FFFFFFFE5000AFFFFFFFFFFF3
:1043B000500004EFFFFFFFFFB00BFFFFFFFFFFFD0B
:1043C00099DFFFFFFFFFFFB005FFFFFFFFFFFFFFCC
:1043D000FFFFFFFFFFFF5000DFFFFFFFFFFFFFFFBB
:1043E000FFFFFFFFFD00004FFFFFFFFFFFFFFFFF8D
:1043F000FFFFFFF4000008FFE7DFFFFFFFFFFFFD07
:104400007EFF90000000991008FFFFFFFFFF800073
:104410008A000000000000000DFFFFFFD100000037
:10442000000000000000000BFFFFFFC000000000C4
:104430000000000000000BFFFFFFC00000000000B4
:10444000000000000009FFFFFF90000000000000D6
:1044500000000000000344300000000000000000E5
:104460000000000000003200000034441000000092
:104470000000000000003DFFB10001FFFF800000D0
:1044800000000000000005FFFFFD2001FFFF90007D
:10449000000000000000008FFFFFFFF401FFFF900D
:1044A000000000000000000BFFFFFFFFFF71FFFF97
:1044B0009000000000000002DFFFFC24EFFFFBFF84
:1044C000FF900000000000004EFFFFA0002DFFFF46
:1044D000FFFF90000000000007FFFFF7007500BF1E
:1044E000FFFFFF9000000000009FFFFF501BFF80B8
:1044F00008FFFFFF90000000001CFFFFE302DFFF4A
:10450000FB005FFFFFB000000003EFFFFC104FFF58
:10451000FFFFD203EFFFFB0000005FFFFFA007FFDC
:10452000FFFFFFFE401CFFFFD20008FFFFF7009FC8
:10453000FFFFFFFFFFF600AFFFFF40AFFFFF401C94
:10454000FFFFFFFFFFFFFF9007FFFFF6CFFFD20245
:10455000EFFFFFFFFFFFFFFFFB105FFFF82EFB10D9
:104560005FFFFFFFFFFFFFFFFFFFD203EFC00370FE
:1045700004FFFFFFFFFFFFFFFFFFFFFF101810000A
:104580000006FFFFFFFFFFFFFFFFFFFFFF20000010
:10459000000006FFFFFFFFFFFFFFFFFFFFFF200000
:1045A00000000006FFFFFFFFA7777DFFFFFFFF2052
:1045B0000000000006FFFFFFFF100005FFFFFFFFE8
:1045C000200000000006FFFFFFFF100005FFFFFFB7
:1045D000FF200000000006FFFFFFFF100005FFFFA7
:1045E000FFFF200000000006FFFFFFFF100005FF97
:1045F000FFFFFF200000000006FFFFFFFF10000587
:10460000FFFFFFFF200000000006FFFFFFFF10007C
:1046100005FFFFFFFF200000000003EFFFFFFC008D
:104620000002EFFFFFFD000000000000000000019D
:104630001110000000000000000000000006FFFF55
:10464000FF60000000000000000000000BFFFFFF03
:10465000B0000000000000000000000CFFFFFFC0E1
:10466000000000000000000000000CFFFFFFC00081
:104670000000000000000000000CFFFFFFC0000071
:1046800000000000000000000CFFFFFFC000000061
:10469000000000000000000CFFFFFFC00000000051
:1046A0000000000000000CFFFFFFC0000000000041
:1046B00000000000000CFFFFFFC000000000000031
:1046C000000000000CFFFFFFC00000000000000021
:1046D0000000000CFFFFFFC0000000000000000809
:1046E000CDDDDFFFFFFFFDDDDC80000000000FFF00
:1046F000FFFFFFFFFFFFFFFFF00000000006FFFFCE
:10470000FFFFFFFFFFFFFF6000000000005FFFFFF3
:10471000FFFFFFFFFFF600000000000005FFFFFFA6
:10472000FFFFFFFF50000000000000005FFFFFFFE1
:10473000FFFFF5000000000000000005FFFFFFFF85
:10474000FF500000000000000000005FFFFFFFF5C9
:104750000000000000000000000005FFFFFF500007
:10476000000000002677777777104FFFF501777705
:10477000777762DFFFFFFFFFD204FF402EFFFFFFCE
:10478000FFFDFFFFFFFFFFFE202202EFFFFFFFFF05
:10479000FFFFFFFFFFFFFFE5005EFFFFFFFFFFFFE3
:1047A000FFFFFFFFFFFFFFFFFFFFFFFFFFFFFFFF19
:1047B000FFFFFFFFFFFFFFFFFFFFFFFFFFFFFFFF09
:1047C000FFFFFFFFFFFFFFFF908F60BFFFFFFFFFB7
:1047D000FFFFFFFFFFFFFF908F60BFFFFFFFFFFFA7
:1047E000FFFFFFFFFFFFFFFFFFFFFF5ABBBBBBBB8E
:1047F000BBBBBBBBBBBBBBBBBBA5000000029BBB29
:10480000BBBBBBBBBBBBB8100000000000004FFF30
:10481000FFFFFFFFFFFFFFFFE1000000000000EFD0
:10482000FFFFFFFFFFFFFFFFFFFB0000000000098D
:10483000FFFFFFFFFFFFFFFFFFFFFF500000000033
:104840004FFFF3000000000000007FFFE1000000C8
:1048500000EFFF80000000000000000CFFFA0000E5
:104860000009FFFD000000000000000002FFFF50F3
:1048700000004FFFF40000000000000000008FFF68
:10488000E10000DFFF900000000000000000000DCC
:10489000FFFA0009FFFE1000000000000000000009
:1048A00003FFFF503FFFF500000000000000000084
:1048B00000009FFFE1CFFFD444444300000000000C
:1048C0003444444FFFF8FFFFFFFFFFFF10000000DC
:1048D00005FFFFFFFFFFFBFFFFFFFFFFFF90000053
:1048E000000DFFFFFFFFFFFCFFFFFFFFFFFFF100D9
:1048F00000005FFFFFFFFFFFFCFFFFFFFFFFFFFB6D
:10490000888888DFFFFFFFFFFFFCFFFFFFFFFFFF3F
:10491000FFFFFFFFFFFFFFFFFFFFFCFFFFFFFFFFAA
:10492000FFFFFFFFFFFFFFFFFFFFFFFCFFFFFFFF9A
:10493000FFFFFFFFFFFFFFFFFFFFFFFFFCFFFFFF8A
:10494000FFFFFFFFFFFFFFFFFFFFFFFFFFFCEFFF8A
:10495000FFFFFFFFFFFFFFFFFFFFFFFFFFFFFA9FCC
:10496000FFFFFFFFFFFFFFFFFFFFFFFFFFFFFFF561
:1049700009FFFFFFFFFFFFFFFFFFFFFFFFFFFFFE3E
:104980007000000000000000000000000000233163
:10499000000000000026ABDDB840000001FFFF0072
:1049A0000000004BFFFFFFFFFE920001FFFF000031
:1049B000001BFFFFFFFFFFFFFF9000FFFF00000451
:1049C000EFFFFFFFFFFFFFFFFD30FFFF00004FFF86
:1049D000FFFFB8668CFFFFFFF5FFFF0003FFFFFF3F
:1049E000810000002AFFFFFFFFFF000DFFFFD20044
:1049F000000000003DFFFFFFFF009FFFFC100000D4
:104A000000000000CFFFFFFF01FFFFD0000000000B
:104A10000222100DFFFFFF08FFFF30000000001F03
:104A2000FFFFFFFFFFFF0DFFFA00000000002FFF58
:104A3000FFFFFFFFFF2FFFF400000000002FFFFF2C
:104A4000FFFFFFFF2EFFD000000000000DFFFFFF63
:104A5000FFFFFC000000000000000000000000005C
:104A60000000000000000000000000000000000046
:104A70000000000000000000000000000000000036
:104A8000122222222222100000000000012210EF38
:104A9000FFFFFFFFFFF100000000001FFFF3FFFF1B
:104AA000FFFFFFFFF200000000006FFFF0FFFFFFBD
:104AB000FFFFFFF20000000000DFFFB0FFFFFFEC90
:104AC000CDEFE00000000007FFFF50FFFFFFF20006
:104AD0000000000000005FFFFD00FFFFFFFE400040
:104AE0000000000006FFFFF500FFFFFFFFF91000C8
:104AF000000001AFFFFF9000FFFFCFFFFFFA510062
:104B0000149FFFFFFC0000FFFF0BFFFFFFFFFFFFF5
:104B1000FFFFFFB00000FFFF006FFFFFFFFFFFFF81
:104B2000FFF8000000FFFF10019FFFFFFFFFFFFCE9
:104B300030000000FFFF1000016BFFFFFFD93000C5
:104B4000000000DFFE100000000243210000000012
:104B50000000000000000000283000000000002ECF
:104B6000FE00000000002EFFF0000000002EFFFFFE
:104B7000000000002EFFFFF00000002EFFFFFF8E60
:104B8000FFFFFFFFFFFFFFFFFFFFFFFFFFFFFFFF35
:104B9000FFFFFFFFFFFFFFFFFFFFFFFFFFFFFFFF25
:104BA000FFFFFFFFFFFFFFFFFFFFFFFFFFFFFFFF15
:104BB000FFFFFFFFFFFFFFFFFFFFFFFFFFFFFFFF05
:104BC000FFFFFFFFFFFFFFFFFFFFCFFFFFFFFFFF25
:104BD000FFF04444447FFFFFFF000000006FFFFF31
:104BE000F0000000006FFFFF00000000006FFFF00A
:104BF00000000000006FFF0000000000006D70006A
:104C0000000000000000000000000000283000004C
:104C1000000000000000002EFE0000000000000068
:104C200000002EFFF000000000000000002EFFFF3B
:104C300000000000000000002EFFFFF00000000058
:104C40000000002EFFFFFF000000008EFFFFFFFFAF
:104C5000FFFFF00000000FFFFFFFFFFFFFFF000955
:104C6000C400FFFFFFFFFFFFFFF002FFF40FFFFF95
:104C7000FFFFFFFFFF000BFFE0FFFFFFFFFFFFFF56
:104C8000F0000AFF5FFFFFFFFFFFFFFF00004FF88C
:104C9000FFFFFFFFFFFFFFF00005FF7FFFFFFFFFAC
:104CA000FFFFFF0002EFF3FFFFFFFFFFFFFFF00139
:104CB000EFFB0FFFFFFFFFFFFFFF001FFD10CFFF08
:104CC000FFFFFFFFFFF0003600004444447FFFFF7A
:104CD000FF00000000000000006FFFFFF000000078
:104CE00000000000006FFFFF000000000000000057
:104CF000006FFFF00000000000000000006FFF00E8
:104D00000000000000000000006D700000000000C6
:104D10000000000000000000000000000000000093
:104D2000000000000000040000000000000000007F
:104D300000000000000000CFD200000000000000D2
:104D40000000000000000000DFFF40000000000045
:104D50000000002830000000002DFFF500000000DA
:104D600000000002EFE00000000000AFFF200000A4
:104D7000000000002EFFF000000492000BFFD000A6
:104D80000000000002EFFFF000000FFF5000DFF70F
:104D900000000000002EFFFFF000000CFFF5003FB8
:104DA000FF1000000002EFFFFFF0000000AFFF2047
:104DB00009FF708EFFFFFFFFFFFFF00000000AFFFA
:104DC000C002FFD0FFFFFFFFFFFFFFF000AD40007C
:104DD000EFF400CFF2FFFFFFFFFFFFFFF002FFF550
:104DE000006FF9007FF6FFFFFFFFFFFFFFF000AF4E
:104DF000FF000FFE004FF9FFFFFFFFFFFFFFF00076
:104E00000AFF600CFF002FFAFFFFFFFFFFFFFFF01C
:104E10000004FF800BFF101FFBFFFFFFFFFFFFFFE2
:104E2000F00006FF700CFF102FFBFFFFFFFFFFFFDE
:104E3000FFF0003EFF300EFF003FFAFFFFFFFFFFD5
:104E4000FFFFF001FFFB003FFC006FF7FFFFFFFFDC
:104E5000FFFFFFF001FFC100AFF700AFF4CFFFFF8E
:104E6000FFFFFFFFF000350004FFF100EFF0044406
:104E70004447FFFFFFF00000003FFF7006FFB00057
:104E80000000006FFFFFF0000006FFFC000DFF4078
:104E90000000000006FFFFF000000FFFC1008FFCC4
:104EA0000000000000006FFFF000000CF90004FF9C
:104EB000F300000000000006FFF000000010003FBB
:104EC000FF80000000000000006D70000000000581
:104ED000FFFB0000000000000000000000000000D8
:104EE0008FFFC00000000000000000000000000074
:104EF00000EFFA00000000000000000000000000C9
:104F000000005C600000000045555555555555554D
:104F10005555555554003EFFFFFFFFFFFFFFFFFFB4
:104F2000FFFFFFFFE3CFFFFFFFFFFFFFFFFFFFFFDD
:104F3000FFFFFFFCFFFFFFFFFFFFFFFFFFFFFFFF84
:104F4000FFFFFFFFFFB202AFFFFFFFFFFFFFFFFF0B
:104F5000FFFFFFFC00000BFFFFFFFFFFFFFFFFFF56
:104F6000FFFFF6000004FFFFFFFFFFFFFFFFFFFF53
:104F7000FFF5000003FFFFFFFFFF6DFFFFFFFFFFD7
:104F8000FA000008FFFFFFFFF301DFFFFFFFFFFF55
:104F900070005FFFFFFFFF30001DFFFFFFFFFFFD01
:104FA000BDFFFFFFFFF3000001DFFFFFFFFFFFFF7B
:104FB000FFFFFFFF300000001DFFFFFFFFFFFA1C97
:104FC000FFFFF30000000001EFFFFFFFFFA000CF95
:104FD000FF300000000000CFFFFFFFFA00000CF3DD
:104FE000000000000000CFFFFFFFA0000000300025
:104FF0000000000000CFFFFFFD00000000000000E7
:1050000000000000CFFFFFFC0000000000000000D7
:10501000000000CFFFFFFC000000000000000000C7
:105020000000CFFFFFFFCCCCCCCCCCCCCCCCCCCCBC
:10503000CCFFFFFFFFFFFFFFFFFFFFFFFFFFFFFFB3
:10504000FFFFAFFFFFFFFFFFFFFFFFFFFFFFFFFFC0
:10505000F90AFFFFFFFFFFFFFFFFFFFFFFFFFF90CA
:10506000044430000000000004103FFFF000000086
:105070000001DFF24FFFF0000000002EFFF74FFFAE
:10508000F000000003EFFFF84FFFF00000004FFFBB
:10509000FFF84FFFF0000005FFFFFFF84FFFF000A3
:1050A000006FFFFFFFF84FFFF00007FFFFFFFFF863
:1050B0004FFFF0008FFFFFFFFFF84FFFF009FFFFEA
:1050C000FFFFFFF84FFFF0AFFFFFFFFFFFF84FFFBD
:1050D000FBFFFFFFFFFFFFF84FFFFFFFFFFFFFFF9B
:1050E000FFF84FFFFFFFFFFFFFFFFFF84FFFFFFF3E
:1050F000FFFFFFFFFFF84FFFFFFFFFFFFFFFFFF87E
:105100004FFFF7FFFFFFFFFFFFF84FFFF06FFFFFBD
:10511000FFFFFFF84FFFF005FFFFFFFFFFF84FFF16
:10512000F0004FFFFFFFFFF84FFFF00003EFFFFF1E
:10513000FFF84FFFF000002EFFFFFFF84FFFF000D9
:105140000001DFFFFFF84FFFF00000001CFFFFF839
:105150004FFFF000000000BFFFF84FFFF00000001D
:10516000000AFFF62EFFC000000000008FB0000014
:1051700000000000000000000032000000000000FD
:10518000000000000003EFFA100000000000000023
:10519000000000CFFFFF70000000000000000000D2
:1051A0000FFFFFFFD4000000000000000000FFFF21
:1051B000FFFFFB20000000000000000FFFFFFFFFCB
:1051C000FF8000000000000000FFFFFFFFFFFFE581
:1051D0000000000000000FFFFFFFFFFFFFFC2000AA
:1051E00000000000FFFFFFFFFFFFFFFF9100000036
:1051F000000FFFFFFFFFFFFFFFFFE600000000FFC3
:10520000FFFFFFFFFFFFFFFFFC3000000FFFFFFF6E
:10521000FFFFFFFFFFFFFFA10000FFFFFFFFFFFFFA
:10522000FFFFFFFFFFF7000FFFFFFFFFFFFFFFFF85
:10523000FFFFFFFD20FFFFFFFFFFFFFFFFFFFFFF5F
:10524000FFFE0FFFFFFFFFFFFFFFFFFFFFFFFFF36B
:10525000FFFFFFFFFFFFFFFFFFFFFFFFFF1FFFFF3E
:10526000FFFFFFFFFFFFFFFFFFFF90FFFFFFFFFFBD
:10527000FFFFFFFFFFFFFE500FFFFFFFFFFFFFFFDE
:10528000FFFFFFF80000FFFFFFFFFFFFFFFFFFFF33
:10529000B200000FFFFFFFFFFFFFFFFFFD50000008
:1052A00000FFFFFFFFFFFFFFFFF7000000000FFF01
:1052B000FFFFFFFFFFFFA10000000000FFFFFFFF57
:1052C000FFFFFD4000000000000FFFFFFFFFFFF7A2
:1052D00000000000000000FFFFFFFFFFA100000032
:1052E000000000000FFFFFFFFC3000000000000086
:1052F0000000EFFFFFE600000000000000000008D3
:10530000FFFF910000000000000000000005BA202F
:10531000000000000000000000000000000000008D
:105320000000000000000000003444444100000080
:10533000034444441002EFFFFFFFF500002EFFFF7F
:10534000FFFF50CFFFFFFFFFF0000CFFFFFFFFFF4D
:105350000FFFFFFFFFFF3000FFFFFFFFFFF3FFFF27
:10536000FFFFFFF4000FFFFFFFFFFF4FFFFFFFFFF7
:10537000FF4000FFFFFFFFFFF4FFFFFFFFFFF40010
:105380000FFFFFFFFFFF4FFFFFFFFFFF4000FFFF8B
:10539000FFFFFFF4FFFFFFFFFFF4000FFFFFFFFF22
:1053A000FF4FFFFFFFFFFF4000FFFFFFFFFFF4FF86
:1053B000FFFFFFFFF4000FFFFFFFFFFF4FFFFFFFA7
:1053C000FFFF4000FFFFFFFFFFF4FFFFFFFFFFF4C1
:1053D000000FFFFFFFFFFF4FFFFFFFFFFF4000FF3A
:1053E000FFFFFFFFF4FFFFFFFFFFF4000FFFFFFFD2
:1053F000FFFF4FFFFFFFFFFF4000FFFFFFFFFFF436
:10540000FFFFFFFFFFF4000FFFFFFFFFFF4FFFFF56
:10541000FFFFFF4000FFFFFFFFFFF4FFFFFFFFFF65
:10542000F4000FFFFFFFFFFF4FFFFFFFFFFF4000F4
:10543000FFFFFFFFFFF4FFFFFFFFFFF4000FFFFF81
:10544000FFFFFF4FFFFFFFFFFF4000FFFFFFFFFFDA
:10545000F4FFFFFFFFFFF4000FFFFFFFFFFF4FFF11
:10546000FFFFFFFF4000FFFFFFFFFFF4EFFFFFFF25
:10547000FFF2000EFFFFFFFFFF29FFFFFFFFFD0010
:10548000009FFFFFFFFFD009EFFFFFEB2000009E12
:10549000FFFFFEB2000034444444444444444444C6
:1054A000441002EFFFFFFFFFFFFFFFFFFFFFFF5072
:1054B000CFFFFFFFFFFFFFFFFFFFFFFFFF0FFFFF1C
:1054C000FFFFFFFFFFFFFFFFFFFFF3FFFFFFFFFFF8
:1054D000FFFFFFFFFFFFFFFF4FFFFFFFFFFFFFFF8C
:1054E000FFFFFFFFFFF4FFFFFFFFFFFFFFFFFFFFD7
:1054F000FFFFFF4FFFFFFFFFFFFFFFFFFFFFFFFF6C
:10550000F4FFFFFFFFFFFFFFFFFFFFFFFFFF4FFF66
:10551000FFFFFFFFFFFFFFFFFFFFFFF4FFFFFFFFA6
:10552000FFFFFFFFFFFFFFFFFF4FFFFFFFFFFFFF3B
:10553000FFFFFFFFFFFFF4FFFFFFFFFFFFFFFFFF86
:10554000FFFFFFFF4FFFFFFFFFFFFFFFFFFFFFFF1B
:10555000FFF4FFFFFFFFFFFFFFFFFFFFFFFFFF4F16
:10556000FFFFFFFFFFFFFFFFFFFFFFFFF4FFFFFF56
:10557000FFFFFFFFFFFFFFFFFFFF4FFFFFFFFFFFEB
:10558000FFFFFFFFFFFFFFF4FFFFFFFFFFFFFFFF36
:10559000FFFFFFFFFF4FFFFFFFFFFFFFFFFFFFFFCB
:1055A000FFFFF4FFFFFFFFFFFFFFFFFFFFFFFFFF16
:1055B0004FFFFFFFFFFFFFFFFFFFFFFFFFF4FFFFB6
:1055C000FFFFFFFFFFFFFFFFFFFFFF4FFFFFFFFF9B
:1055D000FFFFFFFFFFFFFFFFF4EFFFFFFFFFFFFFF6
:1055E000FFFFFFFFFFFF29FFFFFFFFFFFFFFFFFFA1
:1055F000FFFFFFD009EFFFFFFFFFFFFFFFFFFFFEF1
:10560000B200014000000000000244402EFD2000D6
:105610000000000EFFF46FFFE3000000000EFFF437
:105620007FFFFF400000000EFFF47FFFFFF500004A
:10563000000EFFF47FFFFFFF6000000EFFF47FFF0E
:10564000FFFFF700000EFFF47FFFFFFFFF80000E5B
:10565000FFF47FFFFFFFFFF9000EFFF47FFFFFFF66
:10566000FFFFB00EFFF47FFFFFFFFFFFFC0EFFF414
:105670007FFFFFFFFFFFFFDFFFF47FFFFFFFFFFF65
:10568000FFFFFFF47FFFFFFFFFFFFFFFFFF47FFF40
:10569000FFFFFFFFFFFFFFF47FFFFFFFFFFFFFFFA5
:1056A000FFF47FFFFFFFFFFFFF7EFFF47FFFFFFFA1
:1056B000FFFFF60EFFF47FFFFFFFFFFF500EFFF42A
:1056C0007FFFFFFFFFF4000EFFF47FFFFFFFFE30C0
:1056D000000EFFF47FFFFFFFE200000EFFF47FFFEC
:1056E000FFFD1000000EFFF47FFFFFC10000000E61
:1056F000FFF47FFFFC000000000EFFF46FFFB0001E
:105700000000000EFFF40AF900000000000CFFE2A8
:105710000000000000000000000000000000000089
:1057200000100000000000000000000000008FFBDF
:10573000100000000000000000000009FFFFC00092
:105740000000000000000000007FFFFFFB000000E1
:1057500000000000000006FFFFFFFFA000000000A7
:10576000000000005FFFFFFFFFF9000000000000E5
:105770000004FFFFFFFFFFFF700000000000003F7C
:10578000FFFFFFFFFFFFF6000000000002EFFFFF3A
:10579000FFFFFFFFFF50000000001EFFFFFFFFFFA5
:1057A000FFFFFFF400000001DFFFFFFFFFFFFFFF2F
:1057B000FFFF3000000CFFFFFFFFFFFFFFFFFFFFB9
:1057C000E20000BFFFFFFFFFFFFFFFFFFFFFFE1034
:1057D00008FFFFFFFFFFFFFFFFFFFFFFFFC00FFFFF
:1057E000FFFFFFFFFFFFFFFFFFFFFFF30EFFFFFFC6
:1057F000FFFFFFFFFFFFFFFFFFF207FFFFFFFFFFBE
:10580000FFFFFFFFFFFFFFB0006ABBBBBBBBBBBB23
:10581000BBBBBBBBB80000000000000000000000E4
:1058200000000000017888888888888888888888AF
:1058300088200BFFFFFFFFFFFFFFFFFFFFFFFFE1E0
:105840000FFFFFFFFFFFFFFFFFFFFFFFFFF30FFF54
:10585000FFFFFFFFFFFFFFFFFFFFFFF40FFFFFFF53
:10586000FFFFFFFFFFFFFFFFFFF40FFFFFFFFFFF43
:10587000FFFFFFFFFFFFFFF40EFFFFFFFFFFFFFF34
:10588000FFFFFFFFFFF204DFFFFFFFFFFFFFFFFF50
:10589000FFFFFE700000000000000000000000009C
:1058A00000000AF70000000000000AFFF8000000F6
:1058B00000000AFFFFF1000000000AFFFFFD0000EA
:1058C00000000AFFFFFD100000000AFFFFFD1000AE
:1058D00000000AFFFFFD100000000AFFFFFD10009E
:1058E00000000AFFFFFD100000000AFFFFFD10008E
:1058F00000000AFFFFFD100000000AFFFFFD10007E
:10590000000005FFFFFE10000000002FFFFFF60063
:10591000000000003FFFFFF600000000003FFFFF17
:10592000F600000000003FFFFFF600000000003F0F
:10593000FFFFF600000000003FFFFFF60000000040
:10594000003FFFFFF600000000003FFFFFF60000F1
:105950000000003FFFFFF600000000003FFFFFF1E6
:1059600000000000003FFFFD0000000000003FFEBF
:1059700020000000000000271000000000000000D0
:105980000000000BF60000000000000BFFF7000015
:1059900000000005FFFFF700000000002FFFFFF7E9
:1059A00000000000003FFFFFF700000000003FFF85
:1059B000FFF700000000003FFFFFF70000000000BD
:1059C0003FFFFFF700000000003FFFFFF70000006F
:1059D00000003FFFFFF700000000003FFFFFF7005F
:1059E000000000003FFFFFF700000000003FFFFF46
:1059F000F1000000000AFFFFFD000000000AFFFFA9
:105A0000FD100000000AFFFFFD100000000AFFFF6C
:105A1000FD100000000AFFFFFD100000000AFFFF5C
:105A2000FD100000000AFFFFFD100000000AFFFF4C
:105A3000FD100000000AFFFFFD1000000005FFFF41
:105A4000FD10000000002FFFFD1000000000004FBF
:105A5000FD100000000000003710000000000000F2
:105A6000000000000003564000000000000000009D
:105A7000000005FFFF900000000000000000000093
:105A8000AFFFFE000000000000000000000BFFFF61
:105A9000F000000000000000000000BFFFFF000059
:105AA00000000000000000000BFFFFF000000000FD
:105AB000000000000000BFFFFF0000000000000029
:105AC0000000000BFFFFF0000000000000000000DD
:105AD00000BFFFFF000000000000000000000BFFFF
